:020000040800F2
:1000000000100020911E0008E11E0008E11E0008FB
:1000100000000000000000000000000000000000E0
:10002000000000000000000000000000E11E0008C9
:100030000000000000000000E11E0008790A00082E
:10004000E11E000800000000E11E0008E11E00089B
:10005000E11E0008E11E0008E11E0008E11E000884
:1000600000000000510900086D0900089909000806
:10007000E11E00089D090008BD09000800000000FD
:10008000C50900080000000000000000E5090008A4
:1000900000000000E7090008E9090008E11E000867
:1000A00000000000E11E000800000000ED0900084B
:1000B0000000000000000000000000000000000040
:1000C0000448054B10B5834203D0044B002B00D0ED
:1000D000984710BD0400002004000020000000002C
:1000E00006480749091A8B10C90FC91810B54910DD
:1000F00003D0044B002B00D0984710BD0400002013
:10010000040000200000000010B5074C2378002BED
:1001100009D1FFF7D5FF054B002B02D0044800E0C2
:1001200000BF0123237010BD040000200000000068
:10013000F01E0008054B10B5002B03D004490548FC
:1001400000E000BFFFF7CCFF10BDC046000000007C
:1001500008000020F01E000870B5064C05000020C5
:10016000002C05D0130002300A00290000F0CEF860
:1001700070BDC0460D03000870B50C4D0C4E761BCB
:10018000B61005D0002408CD01349847A642FAD114
:1001900001F0AEFE074D084E761BB61005D00024C8
:1001A00008CD01349847A642FAD170BDF422000868
:1001B000F4220008F4220008FC220008F0B5C6462C
:1001C00000B50F2A43D90B00032603431E400C0041
:1001D0000300002E40D11500103D2D09AC462D0125
:1001E000A846804400E03B00676825685F60E768D8
:1001F0001D60DF601F00A56810379D601034434507
:10020000F1D165460F230C2401352D014919134006
:100210004519144223D08C59AC5104369C1B032C35
:10022000F9D80324043B9B0801339B002240ED18BE
:10023000C918561E002A07D0002300E02300CA5C1C
:100240005C1CEA549E42F9D104BC9046F0BD050006
:10025000561E002AF0D1F7E7561E0500ECE71A00FB
:10026000F6E7C046F0B5050083074AD0541E002AC1
:1002700044D0CEB20300032202E00135013C3DD35D
:1002800001332E701342F8D1032C2FD9FF220A40DC
:10029000150215432A0415430F2C35D92700103FAA
:1002A0003F093E01B4461E001A0010366644156030
:1002B00055609560D5601032B242F8D10F260C22FD
:1002C00001373F012640DB193700224217D03E1F7D
:1002D000B608B400A4461A001C1D644420C2A24201
:1002E000FCD103240136B6009B193C40002C05D0FC
:1002F000C9B21C19197001339C42FBD1F0BD340006
:10030000F4E714000300BFE72700E0E7F0B5464636
:100310004F46D646C0B51F002F4B82B01C68050063
:100320000E009046002C2DD063681F2B50DC002D52
:100330001CD08822A0589146002834D078328258A8
:1003400094469A0091468144424649460A600121FA
:10035000624699400A43944680228A46614652008A
:1003600081504946803A8F50022D16D000205A1CE9
:1003700002339B0062601E5102B01CBC904699463D
:10038000A246F0BD154C1C60154B002BCCD01B6851
:1003900001938823019AE250C6E75546843281587A
:1003A0000D438550E2E70F4B002B11D08420400015
:1003B00000E000BF00280BD08022002352008350B1
:1003C000043283504B460022E05094466368B8E7FD
:1003D00001204042D0E7C046B4010020280100209F
:1003E000141F00080000000002B4714649084900CB
:1003F000095C49008E4402BC7047C0460022430895
:100400008B4274D303098B425FD3030A8B4244D3DC
:10041000030B8B4228D3030C8B420DD3FF2209021E
:1004200012BA030C8B4202D31212090265D0030BDD
:100430008B4219D300E0090AC30B8B4201D3CB03D3
:10044000C01A5241830B8B4201D38B03C01A524115
:10045000430B8B4201D34B03C01A5241030B8B4217
:1004600001D30B03C01A5241C30A8B4201D3CB0202
:10047000C01A5241830A8B4201D38B02C01A5241E7
:10048000430A8B4201D34B02C01A5241030A8B42EA
:1004900001D30B02C01A5241CDD2C3098B4201D302
:1004A000CB01C01A524183098B4201D38B01C01A80
:1004B000524143098B4201D34B01C01A52410309F7
:1004C0008B4201D30B01C01A5241C3088B4201D3A6
:1004D000CB00C01A524183088B4201D38B00C01A53
:1004E000524143088B4201D34B00C01A5241411A7A
:1004F00000D20146524110467047FFE701B5002087
:1005000000F0F0F802BDC0460029F7D076E770474A
:1005100003460B437FD4002243088B4274D3030964
:100520008B425FD3030A8B4244D3030B8B4228D305
:10053000030C8B420DD3FF22090212BA030C8B422B
:1005400002D31212090265D0030B8B4219D300E0CB
:10055000090AC30B8B4201D3CB03C01A5241830B50
:100560008B4201D38B03C01A5241430B8B4201D300
:100570004B03C01A5241030B8B4201D30B03C01A29
:100580005241C30A8B4201D3CB02C01A5241830AA3
:100590008B4201D38B02C01A5241430A8B4201D3D2
:1005A0004B02C01A5241030A8B4201D30B02C01AFC
:1005B0005241CDD2C3098B4201D3CB01C01A524163
:1005C00083098B4201D38B01C01A524143098B42EC
:1005D00001D34B01C01A524103098B4201D30B01D5
:1005E000C01A5241C3088B4201D3CB00C01A5241FA
:1005F00083088B4201D38B00C01A524143088B42BF
:1006000001D34B00C01A5241411A00D20146524157
:10061000104670475DE0CA0F00D04942031000D376
:100620004042534000229C4603098B422DD3030ACB
:100630008B4212D3FC22890112BA030A8B420CD3DB
:10064000890192118B4208D3890192118B4204D304
:1006500089013AD0921100E08909C3098B4201D384
:10066000CB01C01A524183098B4201D38B01C01ABE
:10067000524143098B4201D34B01C01A5241030935
:100680008B4201D30B01C01A5241C3088B4201D3E4
:10069000CB00C01A524183088B4201D38B00C01A91
:1006A0005241D9D243088B4201D34B00C01A524168
:1006B000411A00D20146634652415B10104601D3F5
:1006C0004042002B00D54942704763465B1000D37F
:1006D000404201B5002000F005F802BD0029F8D025
:1006E00016E770477047C0461F2318401E3B8340E3
:1006F000014A13607047C04600E100E043690133DE
:1007000043617047064B10B508330360836B0400E8
:10071000002B03D03030032201009847200010BD89
:10072000DC220008C3690133C361704770B5846877
:10073000030022000021002A02D091605268FAE7EB
:1007400021005A6950001A691018904209D08E6829
:10075000158875198D604968002900D12100023281
:10076000F3E79A6B002A03D01800DB6B3030984710
:1007700070BD0B1A9B10002B14DD0278002A03D0E9
:100780004278002A01D1013070478278002A01D1D5
:100790000230F9E7C278002A01D10330F4E70430CF
:1007A000013BE8E70B1A022B09D0032B03D0012BE6
:1007B00009D00800E8E70378002BE5D00130037882
:1007C000002BE1D001300378002BF2D1DCE70B1ACB
:1007D0009B10002B14DD0278002A03D14278002AF6
:1007E00001D0013070478278002A01D00230F9E749
:1007F000C278002A01D00330F4E70430013BE8E777
:100800000B1A022B09D0032B03D0012B09D00800AF
:10081000E8E70378002BE5D101300378002BE1D124
:1008200001300378002BF2D0DCE710B5FFF75CFF56
:1008300010BD0368002B05D01A005B68002BFBD1AC
:10084000516070470160FCE710B50400002C05D032
:10085000236820001B6898476468F7E710BD000014
:1008600003691B0603D5024B4360024B436070478C
:1008700023016745AB89EFCD0122036993430361EF
:10088000022302691343036180239B02C91840239A
:1008900089024161026913430361704703000268E2
:1008A00010695A68012393401840431E9841C0B212
:1008B00070470123C9B2890003398B400068184092
:1008C000431E9841C0B270471C4B10B55B680400D2
:1008D0005B0508005B0F12D0042B12D0052B12D041
:1008E000063B5A425341164A5B4213409B18072865
:1008F00011D8FFF779FD0A121417191C1E21114B8C
:10090000F5E7114BF3E7114BF1E796218901180048
:10091000FFF774FDE060200010BDE121F6E79621AD
:10092000C901F4E7E121FBE796210902EFE7E121A4
:10093000FBE796214902EAE7E121FBE700100240CC
:10094000C0C62D00006CDC0200366E01001BB70033
:10095000044B10B51868FFF777FF0122024B5A606D
:1009600010BDC0463805002000000240074B10B5FE
:100970001868FFF769FF1023054C6360054B186882
:10098000FFF762FF80235B00636010BD400500201D
:100990000000024048050020FEE70000054B10B5AE
:1009A0001868FFF751FF0121034A138A8B43138212
:1009B00010BDC04668050020002C014010B5FFF7AF
:1009C000EDFF10BD054B10B51868FFF73DFF012185
:1009D000034A138A8B43138210BDC0467005002062
:1009E00000040040FEE7FEE7FEE70000044B10B500
:1009F0001868FFF729FF0122024B52421A6210BD0C
:100A000078050020003801400122436A19680A4332
:100A10001A601A68D207FCD5036A1A68D20703D590
:100A2000012219680A431A60012299680A439A60F0
:100A30001A68D207FCD5042299680A439A60704765
:100A400010B50468002C05D0236820001B68984767
:100A5000A468F7E710BD10B504000830FFF7F0FFF9
:100A600020696169431C2361FFF74EFD002902D113
:100A70002000FFF7E5FF10BD10B50248FFF7EBFFC0
:100A800010BDC046800500204169026903000020B6
:100A9000914201D35861013070470000037B002B65
:100AA0000DD00023426803738368002A0ED0002B08
:100AB00008D0936083685A60002343608360704766
:100AC0000B60F8E7044993604A60F5E70249002BA0
:100AD000F6D10B604B60EFE780050020037B002B15
:100AE0000CD101330373064B5A684260002A00D0D0
:100AF00090601A685860002A00D118607047C0469C
:100B000080050020806810B50369FC33DA69D2697A
:100B1000D2060ED50021FF245A6A5268596092B25B
:100B2000A11AA14200D921009960FF2A01D0FFF744
:100B3000D5FF10BD8022164B520219680A431A6075
:100B40001A689203FCD5F0215A688A435A605A68A1
:100B500010490A4003215A605A688A431100022250
:100B60000A435A605A680C491140802252030A43D2
:100B70005A608022596852020A435A6080221968DA
:100B800052040A431A601A689201FCD57047C046A5
:100B900000100240FFF8FFFFFFFFC3FFF8B501237D
:100BA000684C694F22681A426DD1684A68481168DA
:100BB000194205D19021C9050160092113604160E6
:100BC00080237A699B0213437B61036861491A6839
:100BD0001140802212030A43F0211A605A6A8A43A4
:100BE000110010220A435A6201225B4B5B491D68C7
:100BF000154205D19025ED050D600A251A604D605E
:100C000080237A699B0213437B610B68544D1A68F9
:100C10001540802292032A431A605A6A514D1540AA
:100C2000802252002A4301255A624F4B4F4A1E68C8
:100C30002E4205D19026F605166008261D605660E6
:100C400080237D699B022B437B611668484D336886
:100C50001D4080235B022B433360464B0025FC3351
:100C60005A61454A5D609A61444A9D60DA61444A2E
:100C7000D8601A62434A19615A6206229A62043A9B
:100C8000DA620123236080233A4EBA693400DB0123
:100C900013430822BB61FC34E369802519680420F2
:100CA0000A431A60042219680A431A609A682A43A0
:100CB0009A60402299680A439A60334B1856FFF7AE
:100CC000B4FD01237A69314913437B611027236AFC
:100CD0002F481A683A431A6062689219DA60E2692A
:100CE00028329A601A682A431A601A680A401A6001
:100CF0001A6802401A600222042019680A431A6026
:100D0000244B1856FFF791FD636A20491A68204862
:100D1000BA431A6062689219DA60E26924329A6012
:100D2000FF225A601A6815431D601A680A401A604B
:100D30001A6802401A602022196830000A431A60BB
:100D4000F8BDC046D0020020001002401804002068
:100D50001C040020FFFFF3FF0C04002010040020FF
:100D6000FFFFCFFFFFF0FFFF00040020040400207E
:100D7000FFFFFCFFD40200200000024000380140C9
:100D80001C0002403000024078050020FFF3FFFF06
:100D9000FFFCFFFF4005002070B5384E012532688A
:100DA000374C13002B402A421BD1364AA06108322F
:100DB0002260354A35482262354A210062620D229E
:100DC000A062E262A360E360636023616361E36148
:100DD000A363FFF72EFD20002E4A2F49356001F056
:100DE00080F8802318212D489B0082690125134338
:100DF0008361236A8026DA6836068A43DA608022B5
:100E0000D96892010A430221DA60DA682A43DA607B
:100E1000DA680A43DA601A698A40CA4032431A61C2
:100E200007225E6932435A61426940331543456186
:100E30001020626A93601368834313601368184834
:100E400018408023DB0003431360136815481840E3
:100E500080235B0003431360802310680343136007
:100E60001368042019432023116011680B43136099
:100E7000A36A1856FFF7D9FC200070BD00020020BD
:100E800004020020DC220008002401403805002074
:100E90000800024000000020050700080010024082
:100EA000FFF3FFFFFFFCFFFF0122002310B514003A
:100EB000FC304360836043690ACB10339C408C61F3
:100EC000016A0B6893430B60436A19689143196088
:100ED000FF21596019680A431A601A68D207FCD5C5
:100EE0001023C26911680B43136010BD10B58468EC
:100EF0002369FC33D96A9869FFF7DBFC002802D02C
:100F00002069FFF7D1FF10BD10B50468A14209D1D7
:100F10005160002900D00A6043680260002B00D1B4
:100F2000426010BD002909D143681360002B00D036
:100F30005A604260002CF4D10260F2E70B68516005
:100F400013600A6013685A60EBE7000070B504682C
:100F5000184B002C0DD01D00FC356A68043C266837
:100F6000043A921B9E18B4421ED01A000124FF328C
:100F7000547142688918104A4160914216D849005C
:100F80001C008026FC34626876009D1804325218DA
:100F900062600024B24205D8FF335B79A34201D1DD
:100FA0002C0002C4046070BD6A60E2E7012149427E
:100FB000E6E7C04630040020FCFFFF3F012229493C
:100FC000F8B50B680400284D13421CD12748284B64
:100FD000066837001740164204D19026F6051E60B9
:100FE0005F60026080222348920246693243426178
:100FF000032218680668324302600022EB60012376
:101000002A606A600B60E36A0D2B04D1226A0C3BF4
:10101000916A0B43936200232000A1682B61083082
:10102000002904D00B69002B01DC4968F8E72A008D
:10103000FFF76AFF2000A1691030FFF787FF012248
:10104000636A1968914319602169D960616989B23D
:10105000596019680A431A601A68D207FCD528003B
:10106000F8BDC046DC010020E0010020F4010020B2
:10107000F8010020001002400122284970B50B68D9
:101080000400274D13421AD12648274B0668164202
:1010900004D19026F6051E605A6002608022234823
:1010A00092024669324342610C2218680668324354
:1010B00002600022EB6001232A606A600B60E26A32
:1010C00000230D2A05D1226A0233916A0B439362F1
:1010D00001232000A1682B610830002904D00A698F
:1010E000934201DB4968F8E72A00FFF70DFF200073
:1010F000A1691030FFF72AFF0122636A1968914342
:1011000019602169D960616989B2596019680A4317
:101110001A601A68D207FCD5280070BDB8010020FB
:10112000BC010020D0010020D401002000100240AA
:10113000FF23F0B51D00064F064E0C7801315C40D0
:101140003B5D6B40355D8A42F7D105704370F0BD61
:10115000481F0008482000080100FC3110B54A680B
:101160008C6803000020944202D9501C4860985CAF
:1011700010BD0300FC339A68FE2A03D881549A6894
:1011800001329A60704770B50C000500090AFFF73C
:10119000F0FFE1B2FFF7EDFF280070BD012110B5AF
:1011A0000C00FC3043691A685B689C409461102411
:1011B000C2691368A3431360426A13688B431360C8
:1011C000026A13688B431360836840681B1A0233FA
:1011D0009BB253601368194311601368DB07FCD599
:1011E00010BD37B50400006900220300FC330D0078
:1011F0005A609A6001290DD1631DD97FFFF7B9FFAD
:10120000A31DD97F80231943FFF7B3FF2900FFF700
:10121000B0FF03E00229EFD00329EDD0216901A836
:101220000B00FC339A685B688A18C918FFF780FFC7
:101230006B4620695979FFF79CFF6B461979FFF7D8
:1012400098FF2069FFF7AAFF37BD0200FC32536800
:101250009268013370B504000D009A420BD9FFF774
:101260007BFF06002000FFF777FF3602C0B2304355
:101270002880200070BD00230B80FAE770B50D00B8
:101280000100040026310069FFF7DFFF210020691B
:101290002A31FFF7DAFF628DE38CD318013B9BB252
:1012A000AB428041238552002C344042227070BDF5
:1012B000010010B5040026310069FFF7C6FF0221C6
:1012C0002000FFF78EFF10BDF0B5B5B00A222F4900
:1012D0000BA8FEF773FF7021002208AB5B181A7091
:1012E0002B4B1C31083321932A4B2B48259308ABF9
:1012F0005B181A80294B75312D93319332AB1A70DC
:10130000A923FF312E91309108A95B181A70AA23E6
:101310005B18FF211A7033AB1A700BAB2292239229
:101320002A922C922F90269321AB9B18013219768A
:101330000A2AF9D100210EA8FEF794FF2598FFF79D
:101340008FFA0027012621AC636B226B5B00D31858
:101350009C4615000EA9AC450ED02A78092A07D85C
:10136000687821AB9A1810762A788E540235F2E705
:101370002A880B4B9A42F9D13195236BAB4211D19C
:101380002A970834012F20D03700DDE7081F000816
:10139000E82200080020024000780008007C0008D5
:1013A000FFFF0000626B52009B189D4200D1BAE122
:1013B000222308AA9B1819000EA82A97FFF7D9F92B
:1013C000222308AA9B188342DBD12A9A21A9D300A1
:1013D000CB18596B1B6B49005B182BAC9D4205D198
:1013E0000123A35400232A932D9B3193222708AB7A
:1013F000FF1839000EA8FFF7BCF9AA2608AB0500B4
:10140000F618B84200D091E1269B0A22180027A9BD
:101410000093FEF7D3FE002333702378002B12D104
:101420002A9B002B0FD02E9BE5485A0000932D9B42
:1014300019009A180B008A4200D07CE113009B1A15
:101440005A1E934123708D2108ABC9180B78002BCD
:1014500013D12A9B012B10D0309B2F9A5B00D84EC2
:10146000D3181000934204D00232971E3F88B7422F
:10147000F7D01B1A581E83410B708E2608ABF61846
:1014800031002000FFF7A3F9864204D0A92308AA5F
:101490009B1803221A708023259A11690B4313614C
:1014A000222308AA9B189D4204D00A22C5490BA8F2
:1014B000FEF784FE21A8FFF711FB1020FFF76CFC5C
:1014C0001190FFF77BFD12901198FFF7D5FD0122D7
:1014D000BD4B11AE1968B0600024BC48114204D164
:1014E000BB491A600160062141608023B94ADB02D2
:1014F0005169B94D0B435361026813682B40136067
:10150000FFF7CCF90A2307950093002804D108AB14
:101510009B7B009308AB9C89E307DB0F0293A30737
:10152000DB0F03936307DB0F0493E3069B0F059325
:1015300023065B0F0693E3B201930125FFF72EFB11
:101540000122A64F3B681D40134244D1A44CA54B39
:10155000009A2360A44B2061A361631DDA77230006
:101560002C33A2481D70A24BA2496061A363656041
:10157000A5602573E5612562E584A5622586E5639E
:101580002464FFF756F99C4B9C496364A069A564E9
:10159000E464FFF74EF920000A2229005030FEF7DC
:1015A00061FE2000142229005A30FEF75BFE200065
:1015B0000A2229006E30FEF755FE20000A2229007B
:1015C0007830FEF74FFE2000052229008330FEF719
:1015D00049FE01233B60019C1F2322009A431B3BD1
:1015E000002A08D0013B202A05D03C339C43403CD4
:1015F0006342634101337A4D06992B622B69FC33B8
:101600009A6AD869FFF760F9039B7D495A0203681B
:101610000B4013430360049B7A491A0303680B4091
:1016200013430360059B07991A0343680B40134358
:101630004360029B002B00D184E080230268DB0022
:1016400013430124036003680BAF2343036028693D
:10165000FFF72AFC0A950A9B149615935B4B00260C
:101660001793694B14AD2B61FA239B002E6218A8C7
:101670006E622E772B62AF606E61AE61FFF72EFA5D
:10168000624B11981E932123EB62614B2B63FFF792
:10169000BBF9F7220A9B6E331C800A9B78331A80B1
:1016A0000A9BF03A70331E800A9B7A331A800A9B99
:1016B000053A72331E800A9B7C331A800A9B554A76
:1016C00074331E800A9B7E331C800A9B76331A80FB
:1016D0000A9B80331A800A9BBA7864331A800A9B6B
:1016E000FA7866331A800A9B3A7968331A800A9B23
:1016F0007A796A331A800A9BBA796C331A80642427
:101700002B689B689968444B0904090D621090008E
:10171000181806688E4202D9A21A031D013A002A3F
:1017200014DD1400F2E72BABDE552AE601232A9ADA
:10173000A354043370E602318E1E3688864200D1EF
:1017400078E67CE60368354A13407AE7324A18A8FF
:101750009B1A9B102B85FFF797F9002818D06C680F
:101760002B6820005B68AA689B685A301B099BB2F3
:1017700003801189994200D21381230011896033BB
:101780001980642300885E345843FEF7C1FE208030
:101790006C682A8D23005C331A802369FC335A6AF3
:1017A00051689A685B6889B2D21AFF235B1A9A4221
:1017B00036D200232000E361FFF770F99FE7C046AF
:1017C000FFFF0000081F0008240400202804002058
:1017D0000004004800100240FFCFFFFF4402002039
:1017E00048020020441F0008400500207805002022
:1017F0002C1F000880020020381F00088C020020E7
:10180000FFFDFFFFFFEFFFFF201F000800004D520C
:10181000EC1300004D5200004C210008FFFBFFFFBD
:10182000E369226A934200DA69E700262000E66154
:10183000FFF734F920690200FC32936851685F1A9F
:10184000072F02D8FFF730FB59E7671D0197475C68
:10185000BC46671DFF7FBC45F4D18B4202D9013BDA
:101860009360C65C002793680097994203D2013BBE
:101870009360C35C00930300FC339A6809AF82183D
:1018800041183800FFF754FC3B78B34204D17B7811
:10189000009A2069934201D02069D3E7FFF75CFCEE
:1018A0002069FFF759FCA31D0600D877052800D151
:1018B0005FE1102843D00121032806D10A2120002E
:1018C000FFF7DCFC002804D102212000FFF789FC8F
:1018D00015E7206900220300FC335A609A60631DFB
:1018E000D97FFFF746FC3100FFF743FC23002C3380
:1018F0001978FFF73EFC638D20695A1E6285002B24
:1019000009D0E38C5A1C2C335B00E284E31859881D
:10191000FFF739FCEFE70300FC339A685968821837
:1019200041183800FFF704FC79782069FFF721FCA3
:101930003978FFF71EFC2069FFF730FCDFE6052150
:101940002000FFF79BFC0028BED020692100020088
:10195000FC32536896682C319E4232D95E1C566028
:10196000C35C00260B70638DB3423ED92100206911
:101970002E31FFF76AFCE38C9B19E2188332117851
:101980005B00E28D00291ED0E318180011B26E3002
:10199000009101888C460021405E0099814202DA64
:1019A000614600290BD11800783001888C4600214F
:1019B000405E0099814213DD6146002910D0032169
:1019C00083E70023CDE7E31819006E3109888A42C6
:1019D00001D20029F3D11900783109888A42ECD864
:1019E000503301361A80B6B2BDE70026638DB3428C
:1019F00000D8A2E0E08C8019042811D8FEF7F4FC8E
:101A0000031358779000E868FEF748FF002807D0D6
:101A10006B681A005032128864331A80AB689A706F
:101A20000136B6B2E2E7E868FEF738FF0028F7D0E3
:101A30006A68130052331B8866321380AA68D37019
:101A4000002B04D11F2113780B401370E8E7012B02
:101A500005D11F211378194020230B43F5E7022BF2
:101A600004D11F21137819404023F6E7032B04D13A
:101A70001F21137819406023EFE7042B05D11F21A4
:101A80001378194080235B42E7E7052B04D11F211F
:101A9000137819406023F6E7062B04D11F21137831
:101AA00019404023EFE7072BBAD11178273BD4E741
:101AB000E868FEF7F3FE0028B2D06B681A005432D3
:101AC0001188AA68683319801171002903D113782D
:101AD00003318B43B9E7012903D1032013788343F2
:101AE000BBE702299CD1032311789943B5E7E86845
:101AF000FEF7D4FE002893D06A68130056331B8883
:101B00006A321380AA685371002B02D1182113780E
:101B1000DFE7012B84D1182113788B4308399CE728
:101B20006B68698D1A00583212886233914202D173
:101B30000022A9680A811A8072E720690022030046
:101B4000FC335A609A60019BD97FFFF712FBA31DFB
:101B5000D97FFFF70EFBE18CFFF715FB618DFFF7D7
:101B600012FB21690B00FC339A685B688A18C9185C
:101B7000D7E62000FFF79CFBC1E5C04630B50B1A45
:101B80009B10002B15DD14780578A54203D045780D
:101B9000A54201D1013030BD8578A54201D1023086
:101BA000F9E7C578A54201D10330F4E70430013BE1
:101BB000E7E70B1A022B0AD0032B03D0012B0BD023
:101BC0000800E8E7047813789C42E4D001300478F8
:101BD00013789C42DFD00130047813789C42EFD117
:101BE000D9E70000F0B5050045352B7804004669BB
:101BF00085B0D8B2052B36D8FEF7F6FB0317377140
:101C000097C6220048321378E118F65C097E8E42AE
:101C100000D0D4E00133DBB2092B00D818001070DB
:101C200043424341443423701DE02069C368DB070D
:101C300019D403691B0616D5FEF712FE022123698B
:101C40001A698A431A610122186902431A61230042
:101C500048331A78013BB05C18701B78206C1B026B
:101C600013430380297005B0F0BD2369DA6892063A
:101C7000F9D52022D9680A43DA60802219690A431B
:101C80001A6121002300483147331A780B78E31892
:101C90001A76236C981C636A2064DA00A218566BCB
:101CA0007700166B2200F6194632B04203D0137843
:101CB000DBB22B70D7E70126E01828309B1906709D
:101CC000B34200D900236362DB00E3181B6B23647B
:101CD00000230B7001332B7004331370C3E72769A3
:101CE000FB68DB07BFD43B691B06BCD5230026007D
:101CF0002833019302ABDA1D01232A363100019803
:101D00001370FFF73BFFB04202D146342378CFE790
:101D1000019BC01AE0623800FEF7A2FDE36A294A7F
:101D2000D15CFEF7A9FD0423C3E72369DA689206B4
:101D300099D52022D968244E0A43DA608022196995
:101D40000A431A61E16ACB00E3181A6B5B6B5B0014
:101D5000D3181000934204D00232971E3F88B74236
:101D6000F7D061180A001B1A2600591E8B4120006B
:101D700028322A36137031002830FEF728FD03235D
:101D8000864296D1002394E722004832137801332B
:101D9000DBB2092B10D900231370260020002A364D
:101DA00031002830FEF713FD0323864200D10023C3
:101DB0002B704634002336E71370002BEDD001233F
:101DC00077E7C04648210008FFFF0000842210B5D5
:101DD000224C002120005200FEF744FA0023192172
:101DE0001F4AFF34136011711E4A023113601171D2
:101DF0001D4A0E39136011711C4A033113601171B1
:101E00001B4A0739136011711A4A013113601171AD
:101E1000194A637113601171184A0131136011710D
:101E2000174A13601171174A0A391360536093609F
:101E3000D36013615161144A1068884310601348DD
:101E400050609360106804330343136002231068EA
:101E50000343136013681943116010BD3004002060
:101E6000600500207805002068050020700500202E
:101E700038050020400500204805002050050020BE
:101E8000580500208005002010E000E07FBB000026
:101E90000D4885460D480E490E4A002302E0D458ED
:101EA000C4500433C4188C42F9D30B4A0B4C0023A2
:101EB00001E013600432A242FBD3FEF73BFEFEF7C3
:101EC0005BF9FFF701FAFEE7001000200000002098
:101ED00004000020002300080400002098050020D2
:101EE000FEE7030010B508001900FEF735F910BD34
:101EF000F8B5C046F8BC08BC9E467047F8B5C04669
:081F0000F8BC08BC9E467047C6
:101F080000000A000000010000010000200000207D
:101F18000000000000000000FD06000800000000AE
:101F280000000000050B0008000000000000000091
:101F3800ED0E000800000000000000002507000862
:101F480000C1814001C0804101C0804100C1814081
:101F580001C0804100C1814000C1814001C0804171
:101F680001C0804100C1814000C1814001C0804161
:101F780000C1814001C0804101C0804100C1814051
:101F880001C0804100C1814000C1814001C0804141
:101F980000C1814001C0804101C0804100C1814031
:101FA80000C1814001C0804101C0804100C1814021
:101FB80001C0804100C1814000C1814001C0804111
:101FC80001C0804100C1814000C1814001C0804101
:101FD80000C1814001C0804101C0804100C18140F1
:101FE80000C1814001C0804101C0804100C18140E1
:101FF80001C0804100C1814000C1814001C08041D1
:1020080000C1814001C0804101C0804100C18140C0
:1020180001C0804100C1814000C1814001C08041B0
:1020280001C0804100C1814000C1814001C08041A0
:1020380000C1814001C0804101C0804100C1814090
:1020480000C0C101C30302C2C60607C705C5C40450
:10205800CC0C0DCD0FCFCE0E0ACACB0BC90908C8C0
:10206800D81819D91BDBDA1A1EDEDF1FDD1D1CDCB0
:1020780014D4D515D71716D6D21213D311D1D01020
:10208800F03031F133F3F23236F6F737F53534F410
:102098003CFCFD3DFF3F3EFEFA3A3BFB39F9F83880
:1020A80028E8E929EB2B2AEAEE2E2FEF2DEDEC2C70
:1020B800E42425E527E7E62622E2E323E12120E0E0
:1020C800A06061A163A3A26266A6A767A56564A4D0
:1020D8006CACAD6DAF6F6EAEAA6A6BAB69A9A86840
:1020E80078B8B979BB7B7ABABE7E7FBF7DBDBC7C30
:1020F800B47475B577B7B67672B2B373B17170B0A0
:10210800509091519353529296565797559594548F
:102118009C5C5D9D5F9F9E5E5A9A9B5B99595898FF
:10212800884849894B8B8A4A4E8E8F4F8D4D4C8CEF
:10213800448485458747468682424383418180405F
:102148001F1E0000FE0D0000E40D0000C90D000078
:10215800AD0D00008F0D0000770D0000590D000037
:10216800390D0000190D0000F70C0000DB0C000011
:10217800B80C0000950C0000700C00004B0C00001F
:102188002B0C0000040C0000DC0B0000B40B00005A
:102198008A0B0000690B00003F0B0000150B0000C4
:1021A800E90A0000BD0A0000980A00006C0A000055
:1021B8003F0A0000110A0000E3090000BE09000000
:1021C80090090000610900003209000002090000BE
:1021D800DB080000AD0800007E0800004F08000082
:1021E80020080000FA070000CD070000A007000043
:1021F800730700004607000022070000F6060000EB
:10220800CB060000A006000075060000530600007B
:102218002A06000002060000DA050000B2050000E8
:10222800920500006C05000046050000220500002C
:10223800FD040000E0040000BE0400009C0400004F
:102248007B0400005A040000400400002104000040
:1022580003040000E5030000C8030000B103000008
:10226800960300007B0300006103000047030000A1
:10227800330300001B03000004030000ED0200000C
:10228800D6020000C5020000B00200009B02000058
:10229800870200007402000065020000530200007B
:1022A80042020000300200001F020000130200007A
:1022B80003020000F4010000E5010000D501000060
:1022C800CB010000BD010000B0010000A301000027
:1022D8009601000000000000000000002D07000823
:0C22E8000000000000000000E51B0008E2
:0822F40035010008CD1D0008B2
:0422FC0009010008CC
:0423000000000000D9
:0400000508001E9140
:00000001FF
