:020000040800F2
:1000000000100020A5210008F5210008F5210008B6
:1000100000000000000000000000000000000000E0
:10002000000000000000000000000000F5210008B2
:100030000000000000000000F5210008D90B0008B6
:10004000F521000800000000F5210008F521000856
:10005000F5210008090A00083D0A0008710A000895
:1000600000000000510900086D0900089909000806
:10007000F52100089D090008BD09000800000000E6
:10008000C50900080000000000000000E5090008A4
:1000900000000000E7090008E9090008F521000850
:1000A00000000000F521000800000000ED09000834
:1000B0000000000000000000000000000000000040
:1000C0000448054B10B5834203D0044B002B00D0ED
:1000D000984710BD0400002004000020000000002C
:1000E00006480749091A8B10C90FC91810B54910DD
:1000F00003D0044B002B00D0984710BD0400002013
:10010000040000200000000010B5074C2378002BED
:1001100009D1FFF7D5FF054B002B02D0044800E0C2
:1001200000BF0123237010BD040000200000000068
:1001300004220008054B10B5002B03D004490548E4
:1001400000E000BFFFF7CCFF10BDC046000000007C
:10015000080000200422000870B5064C05000020AD
:10016000002C05D0130002300A00290000F0CEF860
:1001700070BDC0460D03000870B50C4D0C4E761BCB
:10018000B61005D0002408CD01349847A642FAD114
:1001900002F038F8074D084E761BB61005D0002443
:1001A00008CD01349847A642FAD170BD0826000850
:1001B000082600080826000810260008F0B5C646E4
:1001C00000B50F2A43D90B00032603431E400C0041
:1001D0000300002E40D11500103D2D09AC462D0125
:1001E000A846804400E03B00676825685F60E768D8
:1001F0001D60DF601F00A56810379D601034434507
:10020000F1D165460F230C2401352D014919134006
:100210004519144223D08C59AC5104369C1B032C35
:10022000F9D80324043B9B0801339B002240ED18BE
:10023000C918561E002A07D0002300E02300CA5C1C
:100240005C1CEA549E42F9D104BC9046F0BD050006
:10025000561E002AF0D1F7E7561E0500ECE71A00FB
:10026000F6E7C046F0B5050083074AD0541E002AC1
:1002700044D0CEB20300032202E00135013C3DD35D
:1002800001332E701342F8D1032C2FD9FF220A40DC
:10029000150215432A0415430F2C35D92700103FAA
:1002A0003F093E01B4461E001A0010366644156030
:1002B00055609560D5601032B242F8D10F260C22FD
:1002C00001373F012640DB193700224217D03E1F7D
:1002D000B608B400A4461A001C1D644420C2A24201
:1002E000FCD103240136B6009B193C40002C05D0FC
:1002F000C9B21C19197001339C42FBD1F0BD340006
:10030000F4E714000300BFE72700E0E7F0B5464636
:100310004F46D646C0B51F002F4B82B01C68050063
:100320000E009046002C2DD063681F2B50DC002D52
:100330001CD08822A0589146002834D078328258A8
:1003400094469A0091468144424649460A600121FA
:10035000624699400A43944680228A46614652008A
:1003600081504946803A8F50022D16D000205A1CE9
:1003700002339B0062601E5102B01CBC904699463D
:10038000A246F0BD154C1C60154B002BCCD01B6851
:1003900001938823019AE250C6E75546843281587A
:1003A0000D438550E2E70F4B002B11D08420400015
:1003B00000E000BF00280BD08022002352008350B1
:1003C000043283504B460022E05094466368B8E7FD
:1003D00001204042D0E7C046B4010020280100209F
:1003E000282200080000000002B4714649084900B4
:1003F000095C49008E4402BC7047C0460022430895
:100400008B4274D303098B425FD3030A8B4244D3DC
:10041000030B8B4228D3030C8B420DD3FF2209021E
:1004200012BA030C8B4202D31212090265D0030BDD
:100430008B4219D300E0090AC30B8B4201D3CB03D3
:10044000C01A5241830B8B4201D38B03C01A524115
:10045000430B8B4201D34B03C01A5241030B8B4217
:1004600001D30B03C01A5241C30A8B4201D3CB0202
:10047000C01A5241830A8B4201D38B02C01A5241E7
:10048000430A8B4201D34B02C01A5241030A8B42EA
:1004900001D30B02C01A5241CDD2C3098B4201D302
:1004A000CB01C01A524183098B4201D38B01C01A80
:1004B000524143098B4201D34B01C01A52410309F7
:1004C0008B4201D30B01C01A5241C3088B4201D3A6
:1004D000CB00C01A524183088B4201D38B00C01A53
:1004E000524143088B4201D34B00C01A5241411A7A
:1004F00000D20146524110467047FFE701B5002087
:1005000000F0F0F802BDC0460029F7D076E770474A
:1005100003460B437FD4002243088B4274D3030964
:100520008B425FD3030A8B4244D3030B8B4228D305
:10053000030C8B420DD3FF22090212BA030C8B422B
:1005400002D31212090265D0030B8B4219D300E0CB
:10055000090AC30B8B4201D3CB03C01A5241830B50
:100560008B4201D38B03C01A5241430B8B4201D300
:100570004B03C01A5241030B8B4201D30B03C01A29
:100580005241C30A8B4201D3CB02C01A5241830AA3
:100590008B4201D38B02C01A5241430A8B4201D3D2
:1005A0004B02C01A5241030A8B4201D30B02C01AFC
:1005B0005241CDD2C3098B4201D3CB01C01A524163
:1005C00083098B4201D38B01C01A524143098B42EC
:1005D00001D34B01C01A524103098B4201D30B01D5
:1005E000C01A5241C3088B4201D3CB00C01A5241FA
:1005F00083088B4201D38B00C01A524143088B42BF
:1006000001D34B00C01A5241411A00D20146524157
:10061000104670475DE0CA0F00D04942031000D376
:100620004042534000229C4603098B422DD3030ACB
:100630008B4212D3FC22890112BA030A8B420CD3DB
:10064000890192118B4208D3890192118B4204D304
:1006500089013AD0921100E08909C3098B4201D384
:10066000CB01C01A524183098B4201D38B01C01ABE
:10067000524143098B4201D34B01C01A5241030935
:100680008B4201D30B01C01A5241C3088B4201D3E4
:10069000CB00C01A524183088B4201D38B00C01A91
:1006A0005241D9D243088B4201D34B00C01A524168
:1006B000411A00D20146634652415B10104601D3F5
:1006C0004042002B00D54942704763465B1000D37F
:1006D000404201B5002000F005F802BD0029F8D025
:1006E00016E770477047C0461F2318401E3B8340E3
:1006F000014A13607047C04600E100E043690133DE
:1007000043617047064B10B508330360836B0400E8
:10071000002B03D03030032201009847200010BD89
:10072000F0250008C3690133C361704770B5846860
:10073000030022000021002A02D091605268FAE7EB
:1007400021005A6950001A691018904209D08E6829
:10075000158875198D604968002900D12100023281
:10076000F3E79A6B002A03D01800DB6B3030984710
:1007700070BD0B1A9B10002B14DD0278002A03D0E9
:100780004278002A01D1013070478278002A01D1D5
:100790000230F9E7C278002A01D10330F4E70430CF
:1007A000013BE8E70B1A022B09D0032B03D0012BE6
:1007B00009D00800E8E70378002BE5D00130037882
:1007C000002BE1D001300378002BF2D1DCE70B1ACB
:1007D0009B10002B14DD0278002A03D14278002AF6
:1007E00001D0013070478278002A01D00230F9E749
:1007F000C278002A01D00330F4E70430013BE8E777
:100800000B1A022B09D0032B03D0012B09D00800AF
:10081000E8E70378002BE5D101300378002BE1D124
:1008200001300378002BF2D0DCE710B5FFF75CFF56
:1008300010BD0368002B05D01A005B68002BFBD1AC
:10084000516070470160FCE710B50400002C05D032
:10085000236820001B6898476468F7E710BD000014
:1008600003691B0603D5024B4360024B436070478C
:1008700023016745AB89EFCD0122036993430361EF
:10088000022302691343036180239B02C91840239A
:1008900089024161026913430361704703000268E2
:1008A00010695A68012393401840431E9841C0B212
:1008B00070470123C9B2890003398B400068184092
:1008C000431E9841C0B270471C4B10B55B680400D2
:1008D0005B0508005B0F12D0042B12D0052B12D041
:1008E000063B5A425341164A5B4213409B18072865
:1008F00011D8FFF779FD0A121417191C1E21114B8C
:10090000F5E7114BF3E7114BF1E796218901180048
:10091000FFF774FDE060200010BDE121F6E79621AD
:10092000C901F4E7E121FBE796210902EFE7E121A4
:10093000FBE796214902EAE7E121FBE700100240CC
:10094000C0C62D00006CDC0200366E01001BB70033
:10095000044B10B51868FFF777FF0122024B5A606D
:1009600010BDC0464005002000000240074B10B5F6
:100970001868FFF769FF1023054C6360054B186882
:10098000FFF762FF80235B00636010BD4805002015
:100990000000024050050020FEE70000054B10B5A6
:1009A0001868FFF751FF0121034A138A8B43138212
:1009B00010BDC046F8050020002C014010B5FFF71F
:1009C000EDFF10BD054B10B51868FFF73DFF012185
:1009D000034A138A8B43138210BDC04600060020D1
:1009E00000040040FEE7FEE7FEE70000044B10B500
:1009F0001868FFF729FF0122024B52421A6210BD0C
:100A0000080600200038014010B5094C6369DB0777
:100A100003D5084B1868FFF717FF63699B0703D5D9
:100A2000054B1868FFF710FF0323636110BDC04634
:100A300000040140680500207005002010B5094C35
:100A400063695B0703D5084B1868FFF7FDFE636910
:100A50001B0703D5054B1868FFF7F6FE0C236361EF
:100A600010BDC04600040140A8050020B0050020CC
:100A700010B5304C6369DB0603D52F4B1868FFF7C0
:100A8000E3FE63699B0603D52C4B1868FFF7DCFE79
:100A900063695B0603D52A4B1868FFF7D5FE6369C7
:100AA0001B0603D5274B1868FFF7CEFE6369DB05ED
:100AB00003D5254B1868FFF7C7FE63699B0503D56F
:100AC000224B1868FFF7C0FE63695B0503D5204B16
:100AD0001868FFF7B9FE63691B0503D51D4B18683D
:100AE000FFF7B2FE6369DB0403D51B4B1868FFF701
:100AF000ABFE63699B0403D5184B1868FFF7A4FE8F
:100B000063695B0403D5164B1868FFF79DFE6369A4
:100B10001B0403D5134B1868FFF796FE102205231C
:100B200001200100994001330A43102BF9D1626181
:100B300010BDC04600040140B8050020C0050020DB
:100B4000C8050020D0050020D8050020E0050020C1
:100B500078050020800500208805002090050020F1
:100B600098050020A00500200122436A19680A4365
:100B70001A601A68D207FCD5036A1A68D20703D52F
:100B8000012219680A431A60012299680A439A608F
:100B90001A68D207FCD5042299680A439A60704704
:100BA00010B50468002C05D0236820001B68984706
:100BB000A468F7E710BD10B504000830FFF7F0FF98
:100BC00020696169431C2361FFF79EFC002902D163
:100BD0002000FFF7E5FF10BD10B50248FFF7EBFF5F
:100BE00010BDC046100600204169026903000020C4
:100BF000914201D35861013070470000037B002B04
:100C00000DD00023426803738368002A0ED0002BA6
:100C100008D0936083685A60002343608360704704
:100C20000B60F8E7044993604A60F5E70249002B3E
:100C3000F6D10B604B60EFE710060020037B002B22
:100C40000CD101330373064B5A684260002A00D06E
:100C500090601A685860002A00D118607047C0463A
:100C600010060020806810B50369FC33DA69D26988
:100C7000D2060ED50021FF245A6A5268596092B2FA
:100C8000A11AA14200D921009960FF2A01D0FFF7E3
:100C9000D5FF10BD8022164B520219680A431A6014
:100CA0001A689203FCD5F0215A688A435A605A6840
:100CB00010490A4003215A605A688A4311000222EF
:100CC0000A435A605A680C491140802252030A4371
:100CD0005A608022596852020A435A608022196879
:100CE00052040A431A601A689201FCD57047C04644
:100CF00000100240FFF8FFFFFFFFC3FFF8B501231C
:100D00006D4C6E4F22681A4277D16D4A6D4811685A
:100D1000194205D19021C905016009211360416084
:100D200080237A699B02134380227B610368664EAD
:100D30001968120331400A431A60F02210215D6ADB
:100D4000954329435962DA6860493240DA600122EA
:100D50005F4B1D68154205D19025ED050D600A25F4
:100D60001A604D6080237A699B02134380227B6165
:100D70000B68584E1D68920335402A431A605D6A1D
:100D8000554A2A4080256D0015435D620125DA68C9
:100D90003240DA60514B524A1E682E4205D19026ED
:100DA000F605166008261D60566080237D699B024B
:100DB0002B437B6113684B4E1D68B446354080263B
:100DC00076022E431E606646DD683540DD60464B88
:100DD0000025FC335A61454A5D609A61444A9D6032
:100DE000DA61444AD8601A62434A19615A62082299
:100DF0009A62063ADA620123236080233A4EBA6986
:100E00003400DB0113430822BB61FC34E369802515
:100E1000196804200A431A60042219680A431A60F8
:100E20009A682A439A60402299680A439A60334B31
:100E30001856FFF7FAFC01237A69314913437B61A5
:100E40001027236A2F481A683A431A606268921979
:100E5000DA60E26928329A601A682A431A601A68CE
:100E60000A401A601A6802401A60022204201968B7
:100E70000A431A60244B1856FFF7D7FC636A2049CF
:100E80001A682048BA431A6062689219DA60E26907
:100E900024329A60FF225A601A6815431D601A684E
:100EA0000A401A601A6802401A602022196830004D
:100EB0000A431A60F8BDC046D80200200010024064
:100EC0002004002024040020FFFFF3FF180400206A
:100ED00014040020FFFFCFFFFFF0FFFF08040020F5
:100EE0000C040020FFFFFCFFDC0200200000024099
:100EF000003801401C00024030000240080600207B
:100F0000FFF3FFFFFFFCFFFF4805002070B5384EE0
:100F100001253268374C13002B402A421BD1364A38
:100F2000A06108322260354A35482262354A2100E4
:100F300062620F22A062E262A360E36063602361E9
:100F40006361E361A363FFF774FC20002E4A2F491D
:100F5000356001F050F9802318212D489B008269EB
:100F6000012513438361236A8026DA6836068A43A3
:100F7000DA608022D96892010A430221DA60DA68D5
:100F80002A43DA60DA680A43DA601A698A40CA409A
:100F900032431A6107225E6932435A614269403323
:100FA000154345611020626A9360136883431360A0
:100FB0001368184818408023DB000343136013684C
:100FC0001548184080235B0003431360802310689A
:100FD0000343136013680420194320231160116830
:100FE0000B431360A36A1856FFF71FFC200070BD67
:100FF0000002002004020020F02500080024014027
:1010000040050020080002400000002005070008FD
:1010100000100240FFF3FFFFFFFCFFFF012200234F
:1010200010B51400FC304360836043690ACB103371
:101030009C408C61016A0B6893430B60436A19689A
:1010400091431960FF21596019680A431A601A68B0
:10105000D207FCD51023C26911680B43136010BD81
:1010600010B584682369FC33D96A9869FFF721FCBD
:10107000002802D02069FFF7D1FF10BD10B5046829
:10108000A14209D15160002900D00A604368026082
:10109000002B00D1426010BD002909D143681360C4
:1010A000002B00D05A604260002CF4D10260F2E7BD
:1010B0000B68516013600A6013685A60EBE7000028
:1010C00070B50468184B002C0DD01D00FC356A6803
:1010D000043C2668043A921B9E18B4421ED01A00A3
:1010E0000124FF32547142688918104A41609142CC
:1010F00016D849001C008026FC34626876009D18D2
:101100000432521862600024B24205D8FF335B7982
:10111000A34201D12C0002C4046070BD6A60E2E702
:1011200001214942E6E7C04638040020FCFFFF3FAA
:101130000122F8B504002948294D036813421FD144
:101140002849294B0E6837001740164204D19026D3
:10115000F6051E605F600A608022244992024E6993
:10116000324303264A611A68116831431160D1681D
:10117000B143D1600022EB6001232A606A60036002
:10118000E36A0F2B04D1226A0E3B916A0B439362F0
:1011900000232000A1682B610830002904D00B69CE
:1011A000002B01DC4968F8E72A00FFF767FF200001
:1011B000A1691030FFF784FF0122636A1968914327
:1011C00019602169D960616989B2596019680A4357
:1011D0001A601A68D207FCD52800F8BDDC0100208F
:1011E000E0010020F4010020F8010020001002407E
:1011F000012270B504002948294D036813421DD10E
:101200002849294B0E68164204D19026F6051E6027
:101210005A600A608022254992024E6932430C26A8
:101220004A611A68116831431160D168B143D160D5
:101230000022EB6001232A606A600360E26A0023F7
:101240000F2A05D1226A0233916A0B43936201236C
:101250002000A1682B610830002904D00A6993425C
:1012600001DB4968F8E72A00FFF708FF2000A169C1
:101270001030FFF725FF0122636A19689143196056
:101280002169D960616989B2596019680A431A6095
:101290001A68D207FCD5280070BDC046B8010020EE
:1012A000BC010020D0010020D40100200010024029
:1012B000FF23F0B51D00064F064E0C7801315C404F
:1012C0003B5D6B40355D8A42F7D105704370F0BDE0
:1012D0005C2200085C2300080100FC3110B54A685C
:1012E0008C6803000020944202D9501C4860985C2E
:1012F00010BD0300FC339A68FE2A03D881549A6813
:1013000001329A60704770B50C000500090AFFF7BA
:10131000F0FFE1B2FFF7EDFF280070BD012110B52D
:101320000C00FC3043691A685B689C40946110248F
:10133000C2691368A3431360426A13688B43136046
:10134000026A13688B431360836840681B1A023378
:101350009BB253601368194311601368DB07FCD517
:1013600010BD37B50400006900220300FC330D00F6
:101370005A609A6001290DD1631DD97FFFF7B9FF2B
:10138000A31DD97F80231943FFF7B3FF2900FFF77F
:10139000B0FF03E00229EFD00329EDD0216901A8B5
:1013A0000B00FC339A685B688A18C918FFF780FF46
:1013B0006B4620695979FFF79CFF6B461979FFF757
:1013C00098FF2069FFF7AAFF37BD0200FC3253687F
:1013D0009268013370B504000D009A420BD9FFF7F3
:1013E0007BFF06002000FFF777FF3602C0B23043D4
:1013F0002880200070BD00230B80FAE770B50D0037
:101400000100040026310069FFF7DFFF2100206999
:101410002A31FFF7DAFF628DE38CD318013B9BB2D0
:10142000AB428041238552002C344042227070BD73
:10143000010010B5040026310069FFF7C6FF022144
:101440002000FFF78EFF10BDF0B5B7B00A222F497C
:101450000BA8FEF7B3FE7821002208AB5B181A70C8
:101460002B4B1C31083323932A4B2B48279308AB73
:101470005B181A80294B6D312F93339334AB1A705C
:10148000B123FF313091329108A95B181A70B22351
:101490005B18FF211A7035AB1A700BAB24922592A2
:1014A0002C922E923190289323AB9B1801321976FF
:1014B0000A2AF9D100210EA8FEF7D4FE2798FFF7DB
:1014C000CFF90026012723AD6B6B2A6B5B00D31885
:1014D0009C4614000EA9A4450ED02278092A07D8EC
:1014E000607823AB9A18107622788F540234F2E792
:1014F00022880B4B9A42F9D133942B6BA34211D122
:101500002C960835012E20D03E00DDE71C22000875
:10151000FC2500080020024000780008007C00083C
:10152000FFFF00006A6B52009B189C4200D1C9E18A
:10153000222308AA9B1819000EA82C96FFF719F968
:10154000222308AA9B188342DBD12C9A23A9D3001B
:10155000CB18596B1B6B49005B182DAD9C4205D114
:101560000123AB5400232C932F9B3393222708ABEA
:10157000FF1839000EA8FFF7FCF8B22608AB0400EC
:10158000F618B84200D0A0E1289B0A22180029A929
:101590000093FEF713FE002333702B78002B12D13B
:1015A0002C9B002B0FD0309BD0485A0000932F9BD0
:1015B00019009A180B008A4200D08BE113009B1A85
:1015C0005A1E93412B70952108ABC9180B78002B3C
:1015D00013D12C9B012B10D0329B319A5B00C34E50
:1015E000D3181000934204D00232971E3F88B742AE
:1015F000F7D01B1A581E83410B70962608ABF618BD
:1016000031002800FFF7E3F8864204D0B12308AA8E
:101610009B1803221A708023279A11690B431361C8
:10162000222308AA9B189C4204D00A22B0490BA886
:10163000FEF7C4FD23A8FFF701FB1020FFF766FCAF
:101640001190FFF775FD12901198FFF7D1FD01225F
:10165000A84B139019680024A748114204D1A74948
:101660001A600160062141608023A54ADB025169AE
:10167000A44D0B43536103681A682A401A60DA6864
:101680002A40DA60FFF70AF90A2307950093002839
:1016900004D108AB9B7B009308AB9C89E307DB0F6D
:1016A0000193A307DB0F02936307DB0F0393E306AA
:1016B0009B0F049323065B0F0593E3B20693FFF79A
:1016C0001DFB914F01263B681D003540334243D13D
:1016D0008E4C8F4B009A23608E4B2061A361631D5B
:1016E000DA7723002C338C481D708C4B8C49606159
:1016F000A3636560A5602573E5612562E584A56245
:101700002586E5632464FFF794F8864B8649636475
:10171000A069A564E464FFF78CF820000E2229007C
:101720005030FEF79FFD20000C2229005E30FEF7AE
:1017300099FD20000E2229006A30FEF793FD20005B
:101740000E2229007830FEF78DFD200007222900A7
:101750008730FEF787FD3E60069B1F2219009143EC
:101760001B3A002908D0013A202905D03C32934386
:10177000403B5A425A410132644C05992369226226
:10178000FC339A6AD869FFF79FF8029B67495A02AF
:1017900003680B4013430360039B65491A03036806
:1017A0000B4013430360049B07991A0343680B40E3
:1017B00013434360019B002B00D192E08023026819
:1017C000DB00134301260360036814AD3343036059
:1017D0002069FFF723FC0A940A9B00246B600BAB83
:1017E000AB60454B11AAEB60524B2C622B61FA2384
:1017F0009B006C6218A82B626C61AC612C77149210
:10180000FFF71CFA4C4B11981E934C4B2C861F93E0
:1018100021236B634A4BAB63FFF7A6F9F7220A9BC0
:101820006A331E800A9B78331A800A9BF03A6C3325
:101830001C800A9B7A331A800A9B053A6E331C80FF
:101840000A9B7C331A800A9B3E4A70331C800A9B99
:101850007E331E800A9B76331A800A9B84331A805B
:101860000A9B08AA927B50331A800A9B08AAD27B53
:1018700052331A800A9B08AA127C54331A800A9B9E
:1018800008AA527C56331A800A9B08AA927C6633B7
:101890001A800A9B08AAD27C68331A8064242B68B9
:1018A0009B689968284B0904090D6210900018186C
:1018B00006688E4202D9A21A031D013A002A47DDAA
:1018C0001400F2E72DAB9F551BE601232C9AAB5475
:1018D000043361E602318E1E3688864200D169E605
:1018E0006DE60368194A13406CE7C046FFFF00002D
:1018F0001C2200082C0400203004002000040048B2
:1019000000100240FFCFFFFF4402002048020020E9
:101910005822000848050020080600204022000840
:10192000800200204C2200088C020020FFFDFFFFF7
:10193000FFEFFFFF3422000800004D534D52565375
:10194000EC1300004D52000060240008FFFBFFFF75
:10195000B34A18A89B1A9B102B85FFF745F900285E
:1019600018D06C682B6820005B68AA689B685E30A2
:101970001B099BB203801189994200D21381230075
:101980001189643319806423008862345843FEF758
:10199000BFFD20806C682A8D230060331A8020AB45
:1019A0001B78002B03D122005C32A36513802369CE
:1019B000FC335A6A51689A685B6889B2D21AFF236D
:1019C0005B1A9A4205D200232000E361FFF716F963
:1019D00064E7E369226A934200DA5FE700262000A9
:1019E000E661FFF70BF920690200FC329368516849
:1019F0005F1A072F02D8FFF711FB4FE7671D01970A
:101A0000475CBC46671DFF7FBC45F4D100968B4206
:101A100003D9013B9360C35C00939368002799420C
:101A200002D2013B9360C75C0300FC339A6809AEA5
:101A3000821841183000FFF73BFC3378009A93423C
:101A400003D173782069BB4201D02069D3E7FFF747
:101A500043FC2069FFF740FCA31D07000093D877E3
:101A6000052800D1B8E105D8032849D0042873D04F
:101A700001214CE01028FBD107212000FFF7BEFC1C
:101A8000002843D0206921000200FC325368966888
:101A90002C319E4200D89BE05E1C5660C35C002641
:101AA0000B70638DB34200D8A7E0210020692E316E
:101AB000FFF78BFCE38C9B19E218873211785B00EF
:101AC000E28D002900D185E0E318180011B28C46A0
:101AD0006A3007880021405E844502DA002F00D07A
:101AE00089E01800783007880021405E844502DDD7
:101AF000002F00D07FE0503301361A80B6B2D0E715
:101B000007212000FFF77AFC002804D102212000E1
:101B1000FFF727FCC2E6206900220300FC335A606D
:101B20009A60631DD97FFFF7E4FB3900FFF7E1FB03
:101B300023002C331978FFF7DCFB638D20695A1ED4
:101B40006285002B30D0E38C5A1C2833E2845B0082
:101B5000195BFFF7D8FBF0E706212000FFF74EFCEA
:101B60000028D3D0206900220300FC335A609A6019
:101B7000631DD97FFFF7BDFB3900FFF7BAFB2300D8
:101B80002C331978FFF7B5FB638D20695A1E6285E7
:101B9000002B09D0E38C5A1C2C335B00E284E31841
:101BA000D988FFF7B0FBEFE70300FC339A68596868
:101BB000821841183000FFF77BFB71782069FFF72E
:101BC00098FB3178FFF795FB2069FFF7A7FB65E6E7
:101BD000002364E7E31819006A3109888A4201D2B8
:101BE000002908D11900783109888A4200D882E793
:101BF000002900D17FE7032189E70026638DB342E6
:101C000000D8C3E06127E08C08AB8019FF180628D4
:101C10000BD8FEF7E9FB0707070747576000C046E8
:101C200060240008E868FEF739FE3B78002B36D0C8
:101C30006968AB680A00503212889878904200D0E8
:101C40009A700A0052321288D878904206D0DA7020
:101C5000002A52D11F201A7802401A700A0054320A
:101C600010881A79824206D01871002877D11A7824
:101C7000033082431A700A00563212885879904213
:101C800006D05A71002A78D118201A7882431A7027
:101C90006122002308A812185A3113700B800136F4
:101CA000B6B2ABE76A68698D583213888B4204D1AB
:101CB0001380012220AB1A70B7E7002BB5D120AA00
:101CC0001370B2E76B685A331A88EB8D9A42ACD125
:101CD00001233B70A9E76B68AA8D5C331988914298
:101CE00008D120AA1278002A04D00022A9680A810B
:101CF0001A809AE701225242FAE7012A05D11F20F1
:101D00001A78104020220243A7E7022A04D11F209C
:101D10001A7810404022F6E7032A04D11F201A78CF
:101D200010406022EFE7042A05D11F201A781040E6
:101D300080225242E7E7052A04D11F201A7810407A
:101D40006022F6E7062A04D11F201A7810404022AC
:101D5000EFE7072A00D081E71878273AD3E7012870
:101D600004D103271A78BA43024383E7022800D03C
:101D700081E7032218789043F6E7012A88D11820DA
:101D80001A78824310001022024380E72069002263
:101D90000300FC335A609A60019BD97FFFF7A9FAD0
:101DA000009BD97FFFF7A5FAE18CFFF7ACFA618DB4
:101DB000FFF7A9FA216909A80B00FC339A685B6850
:101DC0008A18C918FFF774FA08AB59792069FFF728
:101DD00090FA08AB1979F5E62000FFF729FB5DE5DD
:101DE00030B50B1A9B10002B15DD14780578A54231
:101DF00003D04578A54201D1013030BD8578A54298
:101E000001D10230F9E7C578A54201D10330F4E7EA
:101E10000430013BE7E70B1A022B0AD0032B03D057
:101E2000012B0BD00800E8E7047813789C42E4D03B
:101E30000130047813789C42DFD0013004781378A5
:101E40009C42EFD1D9E70000F0B5050045352B786D
:101E50000400466985B0D8B2052B36D8FEF7C4FA1F
:101E60000317377197C6220048321378E118F65CE1
:101E7000097E8E4200D0D4E00133DBB2092B00D8BA
:101E80001800107043424341443423701DE0206920
:101E9000C368DB0719D403691B0616D5FEF7E0FCFF
:101EA000022123691A698A431A61012218690243CF
:101EB0001A61230048331A78013BB05C18701B7814
:101EC000206C1B0213430380297005B0F0BD236909
:101ED000DA689206F9D52022D9680A43DA608022AE
:101EE00019690A431A6121002300483147331A78DF
:101EF0000B78E3181A76236C981C636A2064DA0066
:101F0000A218566B7700166B2200F6194632B042C3
:101F100003D01378DBB22B70D7E70126E018283006
:101F20009B190670B34200D900236362DB00E318FB
:101F30001B6B236400230B7001332B70043313706D
:101F4000C3E72769FB68DB07BFD43B691B06BCD529
:101F5000230026002833019302ABDA1D01232A3621
:101F6000310001981370FFF73BFFB04202D14634B5
:101F70002378CFE7019BC01AE0623800FEF770FCBF
:101F8000E36A294AD15CFEF777FC0423C3E723699F
:101F9000DA68920699D52022D968244E0A43DA607D
:101FA000802219690A431A61E16ACB00E3181A6BAF
:101FB0005B6B5B00D3181000934204D00232971E73
:101FC0003F88B742F7D061180A001B1A2600591E35
:101FD0008B41200028322A36137031002830FEF75A
:101FE000F6FB0323864296D1002394E72200483271
:101FF00013780133DBB2092B10D9002313702600AC
:1020000020002A3631002830FEF7E1FB0323864208
:1020100000D100232B704634002336E71370002BC9
:10202000EDD0012377E7C0465C240008FFFF0000E5
:10203000842210B53D4C002120005200FEF712F919
:102040000023022019213A4AFF3413601071394AE3
:10205000637113601171384A091813601171374A9E
:102060000E3913601171364A033113601171354A0C
:10207000073913601171344A013113601171334A09
:1020800013601171324A013113601171314A1360CA
:102090001171314A063913601171304A13601171A0
:1020A0002F4A0131136011712E4A136011710722FA
:1020B0002D490B600A712D490B600A712C490B6088
:1020C0000A712C490B600A712B490B600A712B496C
:1020D0000B600A712A490B600A712A490B600A7168
:1020E00029490B600A7129490B600A7128490B6064
:1020F0000A7128490B600A710121274A1360536055
:102100009360D36013615161244A14688C43146056
:10211000234C5460936014680433234313601368A2
:102120001843106013681943116010BD3804002073
:10213000E8050020F005002008060020F805002032
:102140000006002040050020480500205005002022
:10215000580500206005002068050020700500205B
:10216000A8050020B0050020B8050020C00500200B
:10217000C8050020D0050020D8050020E00500207B
:1021800078050020800500208805002090050020AB
:1021900098050020A00500201006002010E000E0B7
:1021A0007FBB00000D4885460D480E490E4A0023AE
:1021B00002E0D458C4500433C4188C42F9D30B4AFB
:1021C0000B4C002301E013600432A242FBD3FEF764
:1021D00061FDFDF7D1FFFFF737F9FEE700100020A2
:1021E0000000002004000020142600080400002045
:1021F00028060020FEE7030010B508001900FDF7CF
:10220000ABFF10BDF8B5C046F8BC08BC9E46704791
:0C221000F8B5C046F8BC08BC9E467047FC
:10221C0000000A0000000B6E0001000020000020EE
:10222C000000000000000000FD0600080000000097
:10223C0000000000650C0008000000000000000019
:10224C0061100008000000000000000025070008D5
:10225C0000C1814001C0804101C0804100C181406A
:10226C0001C0804100C1814000C1814001C080415A
:10227C0001C0804100C1814000C1814001C080414A
:10228C0000C1814001C0804101C0804100C181403A
:10229C0001C0804100C1814000C1814001C080412A
:1022AC0000C1814001C0804101C0804100C181401A
:1022BC0000C1814001C0804101C0804100C181400A
:1022CC0001C0804100C1814000C1814001C08041FA
:1022DC0001C0804100C1814000C1814001C08041EA
:1022EC0000C1814001C0804101C0804100C18140DA
:1022FC0000C1814001C0804101C0804100C18140CA
:10230C0001C0804100C1814000C1814001C08041B9
:10231C0000C1814001C0804101C0804100C18140A9
:10232C0001C0804100C1814000C1814001C0804199
:10233C0001C0804100C1814000C1814001C0804189
:10234C0000C1814001C0804101C0804100C1814079
:10235C0000C0C101C30302C2C60607C705C5C40439
:10236C00CC0C0DCD0FCFCE0E0ACACB0BC90908C8A9
:10237C00D81819D91BDBDA1A1EDEDF1FDD1D1CDC99
:10238C0014D4D515D71716D6D21213D311D1D01009
:10239C00F03031F133F3F23236F6F737F53534F4F9
:1023AC003CFCFD3DFF3F3EFEFA3A3BFB39F9F83869
:1023BC0028E8E929EB2B2AEAEE2E2FEF2DEDEC2C59
:1023CC00E42425E527E7E62622E2E323E12120E0C9
:1023DC00A06061A163A3A26266A6A767A56564A4B9
:1023EC006CACAD6DAF6F6EAEAA6A6BAB69A9A86829
:1023FC0078B8B979BB7B7ABABE7E7FBF7DBDBC7C19
:10240C00B47475B577B7B67672B2B373B17170B088
:10241C005090915193535292965657975595945478
:10242C009C5C5D9D5F9F9E5E5A9A9B5B99595898E8
:10243C00884849894B8B8A4A4E8E8F4F8D4D4C8CD8
:10244C004484854587474686824243834181804048
:10245C001F1E0000FE0D0000E40D0000C90D000061
:10246C00AD0D00008F0D0000770D0000590D000020
:10247C00390D0000190D0000F70C0000DB0C0000FA
:10248C00B80C0000950C0000700C00004B0C000008
:10249C002B0C0000040C0000DC0B0000B40B000043
:1024AC008A0B0000690B00003F0B0000150B0000AD
:1024BC00E90A0000BD0A0000980A00006C0A00003E
:1024CC003F0A0000110A0000E3090000BE090000E9
:1024DC0090090000610900003209000002090000A7
:1024EC00DB080000AD0800007E0800004F0800006B
:1024FC0020080000FA070000CD070000A00700002C
:10250C00730700004607000022070000F6060000D3
:10251C00CB060000A0060000750600005306000064
:10252C002A06000002060000DA050000B2050000D1
:10253C00920500006C050000460500002205000015
:10254C00FD040000E0040000BE0400009C04000038
:10255C007B0400005A040000400400002104000029
:10256C0003040000E5030000C8030000B1030000F1
:10257C00960300007B03000061030000470300008A
:10258C00330300001B03000004030000ED020000F5
:10259C00D6020000C5020000B00200009B02000041
:1025AC008702000074020000650200005302000064
:1025BC0042020000300200001F0200001302000063
:1025CC0003020000F4010000E5010000D501000049
:1025DC00CB010000BD010000B0010000A301000010
:1025EC009601000000000000000000002D0700080C
:0C25FC000000000000000000491E000864
:08260800350100083120000833
:0426100009010008B4
:0426140000000000C2
:04000005080021A529
:00000001FF
