:020000040800F2
:100000000010002095210008E5210008E5210008E6
:1000100000000000000000000000000000000000E0
:10002000000000000000000000000000E5210008C2
:100030000000000000000000E5210008D90B0008C6
:10004000E521000800000000E5210008E521000886
:10005000E5210008090A00083D0A0008710A0008A5
:1000600000000000510900086D0900089909000806
:10007000E52100089D090008BD09000800000000F6
:10008000C50900080000000000000000E5090008A4
:1000900000000000E7090008E9090008E521000860
:1000A00000000000E521000800000000ED09000844
:1000B0000000000000000000000000000000000040
:1000C0000448054B10B5834203D0044B002B00D0ED
:1000D000984710BD0400002004000020000000002C
:1000E00006480749091A8B10C90FC91810B54910DD
:1000F00003D0044B002B00D0984710BD0400002013
:10010000040000200000000010B5074C2378002BED
:1001100009D1FFF7D5FF054B002B02D0044800E0C2
:1001200000BF0123237010BD040000200000000068
:10013000F4210008054B10B5002B03D004490548F5
:1001400000E000BFFFF7CCFF10BDC046000000007C
:1001500008000020F421000870B5064C05000020BE
:10016000002C05D0130002300A00290000F0CEF860
:1001700070BDC0460D03000870B50C4D0C4E761BCB
:10018000B61005D0002408CD01349847A642FAD114
:1001900002F030F8074D084E761BB61005D000244B
:1001A00008CD01349847A642FAD170BDF825000861
:1001B000F8250008F825000800260008F0B5C64616
:1001C00000B50F2A43D90B00032603431E400C0041
:1001D0000300002E40D11500103D2D09AC462D0125
:1001E000A846804400E03B00676825685F60E768D8
:1001F0001D60DF601F00A56810379D601034434507
:10020000F1D165460F230C2401352D014919134006
:100210004519144223D08C59AC5104369C1B032C35
:10022000F9D80324043B9B0801339B002240ED18BE
:10023000C918561E002A07D0002300E02300CA5C1C
:100240005C1CEA549E42F9D104BC9046F0BD050006
:10025000561E002AF0D1F7E7561E0500ECE71A00FB
:10026000F6E7C046F0B5050083074AD0541E002AC1
:1002700044D0CEB20300032202E00135013C3DD35D
:1002800001332E701342F8D1032C2FD9FF220A40DC
:10029000150215432A0415430F2C35D92700103FAA
:1002A0003F093E01B4461E001A0010366644156030
:1002B00055609560D5601032B242F8D10F260C22FD
:1002C00001373F012640DB193700224217D03E1F7D
:1002D000B608B400A4461A001C1D644420C2A24201
:1002E000FCD103240136B6009B193C40002C05D0FC
:1002F000C9B21C19197001339C42FBD1F0BD340006
:10030000F4E714000300BFE72700E0E7F0B5464636
:100310004F46D646C0B51F002F4B82B01C68050063
:100320000E009046002C2DD063681F2B50DC002D52
:100330001CD08822A0589146002834D078328258A8
:1003400094469A0091468144424649460A600121FA
:10035000624699400A43944680228A46614652008A
:1003600081504946803A8F50022D16D000205A1CE9
:1003700002339B0062601E5102B01CBC904699463D
:10038000A246F0BD154C1C60154B002BCCD01B6851
:1003900001938823019AE250C6E75546843281587A
:1003A0000D438550E2E70F4B002B11D08420400015
:1003B00000E000BF00280BD08022002352008350B1
:1003C000043283504B460022E05094466368B8E7FD
:1003D00001204042D0E7C046B4010020280100209F
:1003E000182200080000000002B4714649084900C4
:1003F000095C49008E4402BC7047C0460022430895
:100400008B4274D303098B425FD3030A8B4244D3DC
:10041000030B8B4228D3030C8B420DD3FF2209021E
:1004200012BA030C8B4202D31212090265D0030BDD
:100430008B4219D300E0090AC30B8B4201D3CB03D3
:10044000C01A5241830B8B4201D38B03C01A524115
:10045000430B8B4201D34B03C01A5241030B8B4217
:1004600001D30B03C01A5241C30A8B4201D3CB0202
:10047000C01A5241830A8B4201D38B02C01A5241E7
:10048000430A8B4201D34B02C01A5241030A8B42EA
:1004900001D30B02C01A5241CDD2C3098B4201D302
:1004A000CB01C01A524183098B4201D38B01C01A80
:1004B000524143098B4201D34B01C01A52410309F7
:1004C0008B4201D30B01C01A5241C3088B4201D3A6
:1004D000CB00C01A524183088B4201D38B00C01A53
:1004E000524143088B4201D34B00C01A5241411A7A
:1004F00000D20146524110467047FFE701B5002087
:1005000000F0F0F802BDC0460029F7D076E770474A
:1005100003460B437FD4002243088B4274D3030964
:100520008B425FD3030A8B4244D3030B8B4228D305
:10053000030C8B420DD3FF22090212BA030C8B422B
:1005400002D31212090265D0030B8B4219D300E0CB
:10055000090AC30B8B4201D3CB03C01A5241830B50
:100560008B4201D38B03C01A5241430B8B4201D300
:100570004B03C01A5241030B8B4201D30B03C01A29
:100580005241C30A8B4201D3CB02C01A5241830AA3
:100590008B4201D38B02C01A5241430A8B4201D3D2
:1005A0004B02C01A5241030A8B4201D30B02C01AFC
:1005B0005241CDD2C3098B4201D3CB01C01A524163
:1005C00083098B4201D38B01C01A524143098B42EC
:1005D00001D34B01C01A524103098B4201D30B01D5
:1005E000C01A5241C3088B4201D3CB00C01A5241FA
:1005F00083088B4201D38B00C01A524143088B42BF
:1006000001D34B00C01A5241411A00D20146524157
:10061000104670475DE0CA0F00D04942031000D376
:100620004042534000229C4603098B422DD3030ACB
:100630008B4212D3FC22890112BA030A8B420CD3DB
:10064000890192118B4208D3890192118B4204D304
:1006500089013AD0921100E08909C3098B4201D384
:10066000CB01C01A524183098B4201D38B01C01ABE
:10067000524143098B4201D34B01C01A5241030935
:100680008B4201D30B01C01A5241C3088B4201D3E4
:10069000CB00C01A524183088B4201D38B00C01A91
:1006A0005241D9D243088B4201D34B00C01A524168
:1006B000411A00D20146634652415B10104601D3F5
:1006C0004042002B00D54942704763465B1000D37F
:1006D000404201B5002000F005F802BD0029F8D025
:1006E00016E770477047C0461F2318401E3B8340E3
:1006F000014A13607047C04600E100E043690133DE
:1007000043617047064B10B508330360836B0400E8
:10071000002B03D03030032201009847200010BD89
:10072000E0250008C3690133C361704770B5846870
:10073000030022000021002A02D091605268FAE7EB
:1007400021005A6950001A691018904209D08E6829
:10075000158875198D604968002900D12100023281
:10076000F3E79A6B002A03D01800DB6B3030984710
:1007700070BD0B1A9B10002B14DD0278002A03D0E9
:100780004278002A01D1013070478278002A01D1D5
:100790000230F9E7C278002A01D10330F4E70430CF
:1007A000013BE8E70B1A022B09D0032B03D0012BE6
:1007B00009D00800E8E70378002BE5D00130037882
:1007C000002BE1D001300378002BF2D1DCE70B1ACB
:1007D0009B10002B14DD0278002A03D14278002AF6
:1007E00001D0013070478278002A01D00230F9E749
:1007F000C278002A01D00330F4E70430013BE8E777
:100800000B1A022B09D0032B03D0012B09D00800AF
:10081000E8E70378002BE5D101300378002BE1D124
:1008200001300378002BF2D0DCE710B5FFF75CFF56
:1008300010BD0368002B05D01A005B68002BFBD1AC
:10084000516070470160FCE710B50400002C05D032
:10085000236820001B6898476468F7E710BD000014
:1008600003691B0603D5024B4360024B436070478C
:1008700023016745AB89EFCD0122036993430361EF
:10088000022302691343036180239B02C91840239A
:1008900089024161026913430361704703000268E2
:1008A00010695A68012393401840431E9841C0B212
:1008B00070470123C9B2890003398B400068184092
:1008C000431E9841C0B270471C4B10B55B680400D2
:1008D0005B0508005B0F12D0042B12D0052B12D041
:1008E000063B5A425341164A5B4213409B18072865
:1008F00011D8FFF779FD0A121417191C1E21114B8C
:10090000F5E7114BF3E7114BF1E796218901180048
:10091000FFF774FDE060200010BDE121F6E79621AD
:10092000C901F4E7E121FBE796210902EFE7E121A4
:10093000FBE796214902EAE7E121FBE700100240CC
:10094000C0C62D00006CDC0200366E01001BB70033
:10095000044B10B51868FFF777FF0122024B5A606D
:1009600010BDC0463805002000000240074B10B5FE
:100970001868FFF769FF1023054C6360054B186882
:10098000FFF762FF80235B00636010BD400500201D
:100990000000024048050020FEE70000054B10B5AE
:1009A0001868FFF751FF0121034A138A8B43138212
:1009B00010BDC046F0050020002C014010B5FFF727
:1009C000EDFF10BD054B10B51868FFF73DFF012185
:1009D000034A138A8B43138210BDC046F8050020DA
:1009E00000040040FEE7FEE7FEE70000044B10B500
:1009F0001868FFF729FF0122024B52421A6210BD0C
:100A0000000600200038014010B5094C6369DB077F
:100A100003D5084B1868FFF717FF63699B0703D5D9
:100A2000054B1868FFF710FF0323636110BDC04634
:100A300000040140600500206805002010B5094C45
:100A400063695B0703D5084B1868FFF7FDFE636910
:100A50001B0703D5054B1868FFF7F6FE0C236361EF
:100A600010BDC04600040140A0050020A8050020DC
:100A700010B5304C6369DB0603D52F4B1868FFF7C0
:100A8000E3FE63699B0603D52C4B1868FFF7DCFE79
:100A900063695B0603D52A4B1868FFF7D5FE6369C7
:100AA0001B0603D5274B1868FFF7CEFE6369DB05ED
:100AB00003D5254B1868FFF7C7FE63699B0503D56F
:100AC000224B1868FFF7C0FE63695B0503D5204B16
:100AD0001868FFF7B9FE63691B0503D51D4B18683D
:100AE000FFF7B2FE6369DB0403D51B4B1868FFF701
:100AF000ABFE63699B0403D5184B1868FFF7A4FE8F
:100B000063695B0403D5164B1868FFF79DFE6369A4
:100B10001B0403D5134B1868FFF796FE102205231C
:100B200001200100994001330A43102BF9D1626181
:100B300010BDC04600040140B0050020B8050020EB
:100B4000C0050020C8050020D0050020D8050020E1
:100B50007005002078050020800500208805002011
:100B600090050020980500200122436A19680A4375
:100B70001A601A68D207FCD5036A1A68D20703D52F
:100B8000012219680A431A60012299680A439A608F
:100B90001A68D207FCD5042299680A439A60704704
:100BA00010B50468002C05D0236820001B68984706
:100BB000A468F7E710BD10B504000830FFF7F0FF98
:100BC00020696169431C2361FFF79EFC002902D163
:100BD0002000FFF7E5FF10BD10B50248FFF7EBFF5F
:100BE00010BDC046080600204169026903000020CC
:100BF000914201D35861013070470000037B002B04
:100C00000DD00023426803738368002A0ED0002BA6
:100C100008D0936083685A60002343608360704704
:100C20000B60F8E7044993604A60F5E70249002B3E
:100C3000F6D10B604B60EFE708060020037B002B2A
:100C40000CD101330373064B5A684260002A00D06E
:100C500090601A685860002A00D118607047C0463A
:100C600008060020806810B50369FC33DA69D26990
:100C7000D2060ED50021FF245A6A5268596092B2FA
:100C8000A11AA14200D921009960FF2A01D0FFF7E3
:100C9000D5FF10BD8022164B520219680A431A6014
:100CA0001A689203FCD5F0215A688A435A605A6840
:100CB00010490A4003215A605A688A4311000222EF
:100CC0000A435A605A680C491140802252030A4371
:100CD0005A608022596852020A435A608022196879
:100CE00052040A431A601A689201FCD57047C04644
:100CF00000100240FFF8FFFFFFFFC3FFF8B501231C
:100D00006D4C6E4F22681A4277D16D4A6D4811685A
:100D1000194205D19021C905016009211360416084
:100D200080237A699B02134380227B610368664EAD
:100D30001968120331400A431A60F02210215D6ADB
:100D4000954329435962DA6860493240DA600122EA
:100D50005F4B1D68154205D19025ED050D600A25F4
:100D60001A604D6080237A699B02134380227B6165
:100D70000B68584E1D68920335402A431A605D6A1D
:100D8000554A2A4080256D0015435D620125DA68C9
:100D90003240DA60514B524A1E682E4205D19026ED
:100DA000F605166008261D60566080237D699B024B
:100DB0002B437B6113684B4E1D68B446354080263B
:100DC00076022E431E606646DD683540DD60464B88
:100DD0000025FC335A61454A5D609A61444A9D6032
:100DE000DA61444AD8601A62434A19615A62082299
:100DF0009A62063ADA620123236080233A4EBA6986
:100E00003400DB0113430822BB61FC34E369802515
:100E1000196804200A431A60042219680A431A60F8
:100E20009A682A439A60402299680A439A60334B31
:100E30001856FFF7FAFC01237A69314913437B61A5
:100E40001027236A2F481A683A431A606268921979
:100E5000DA60E26928329A601A682A431A601A68CE
:100E60000A401A601A6802401A60022204201968B7
:100E70000A431A60244B1856FFF7D7FC636A2049CF
:100E80001A682048BA431A6062689219DA60E26907
:100E900024329A60FF225A601A6815431D601A684E
:100EA0000A401A601A6802401A602022196830004D
:100EB0000A431A60F8BDC046D0020020001002406C
:100EC000180400201C040020FFFFF3FF1004002082
:100ED0000C040020FFFFCFFFFFF0FFFF0004002005
:100EE00004040020FFFFFCFFD402002000000240A9
:100EF000003801401C000240300002400006002083
:100F0000FFF3FFFFFFFCFFFF4005002070B5384EE8
:100F100001253268374C13002B402A421BD1364A38
:100F2000A06108322260354A35482262354A2100E4
:100F300062620F22A062E262A360E36063602361E9
:100F40006361E361A363FFF774FC20002E4A2F491D
:100F5000356001F048F9802318212D489B008269F3
:100F6000012513438361236A8026DA6836068A43A3
:100F7000DA608022D96892010A430221DA60DA68D5
:100F80002A43DA60DA680A43DA601A698A40CA409A
:100F900032431A6107225E6932435A614269403323
:100FA000154345611020626A9360136883431360A0
:100FB0001368184818408023DB000343136013684C
:100FC0001548184080235B0003431360802310689A
:100FD0000343136013680420194320231160116830
:100FE0000B431360A36A1856FFF71FFC200070BD67
:100FF0000002002004020020E02500080024014037
:101000003805002008000240000000200507000805
:1010100000100240FFF3FFFFFFFCFFFF012200234F
:1010200010B51400FC304360836043690ACB103371
:101030009C408C61016A0B6893430B60436A19689A
:1010400091431960FF21596019680A431A601A68B0
:10105000D207FCD51023C26911680B43136010BD81
:1010600010B584682369FC33D96A9869FFF721FCBD
:10107000002802D02069FFF7D1FF10BD10B5046829
:10108000A14209D15160002900D00A604368026082
:10109000002B00D1426010BD002909D143681360C4
:1010A000002B00D05A604260002CF4D10260F2E7BD
:1010B0000B68516013600A6013685A60EBE7000028
:1010C00070B50468184B002C0DD01D00FC356A6803
:1010D000043C2668043A921B9E18B4421ED01A00A3
:1010E0000124FF32547142688918104A41609142CC
:1010F00016D849001C008026FC34626876009D18D2
:101100000432521862600024B24205D8FF335B7982
:10111000A34201D12C0002C4046070BD6A60E2E702
:1011200001214942E6E7C04630040020FCFFFF3FB2
:101130000122F8B504002948294D036813421FD144
:101140002849294B0E6837001740164204D19026D3
:10115000F6051E605F600A608022244992024E6993
:10116000324303264A611A68116831431160D1681D
:10117000B143D1600022EB6001232A606A60036002
:10118000E36A0F2B04D1226A0E3B916A0B439362F0
:1011900000232000A1682B610830002904D00B69CE
:1011A000002B01DC4968F8E72A00FFF767FF200001
:1011B000A1691030FFF784FF0122636A1968914327
:1011C00019602169D960616989B2596019680A4357
:1011D0001A601A68D207FCD52800F8BDDC0100208F
:1011E000E0010020F4010020F8010020001002407E
:1011F000012270B504002948294D036813421DD10E
:101200002849294B0E68164204D19026F6051E6027
:101210005A600A608022254992024E6932430C26A8
:101220004A611A68116831431160D168B143D160D5
:101230000022EB6001232A606A600360E26A0023F7
:101240000F2A05D1226A0233916A0B43936201236C
:101250002000A1682B610830002904D00A6993425C
:1012600001DB4968F8E72A00FFF708FF2000A169C1
:101270001030FFF725FF0122636A19689143196056
:101280002169D960616989B2596019680A431A6095
:101290001A68D207FCD5280070BDC046B8010020EE
:1012A000BC010020D0010020D40100200010024029
:1012B000FF23F0B51D00064F064E0C7801315C404F
:1012C0003B5D6B40355D8A42F7D105704370F0BDE0
:1012D0004C2200084C2300080100FC3110B54A687C
:1012E0008C6803000020944202D9501C4860985C2E
:1012F00010BD0300FC339A68FE2A03D881549A6813
:1013000001329A60704770B50C000500090AFFF7BA
:10131000F0FFE1B2FFF7EDFF280070BD012110B52D
:101320000C00FC3043691A685B689C40946110248F
:10133000C2691368A3431360426A13688B43136046
:10134000026A13688B431360836840681B1A023378
:101350009BB253601368194311601368DB07FCD517
:1013600010BD37B50400006900220300FC330D00F6
:101370005A609A6001290DD1631DD97FFFF7B9FF2B
:10138000A31DD97F80231943FFF7B3FF2900FFF77F
:10139000B0FF03E00229EFD00329EDD0216901A8B5
:1013A0000B00FC339A685B688A18C918FFF780FF46
:1013B0006B4620695979FFF79CFF6B461979FFF757
:1013C00098FF2069FFF7AAFF37BD0200FC3253687F
:1013D0009268013370B504000D009A420BD9FFF7F3
:1013E0007BFF06002000FFF777FF3602C0B23043D4
:1013F0002880200070BD00230B80FAE770B50D0037
:101400000100040026310069FFF7DFFF2100206999
:101410002A31FFF7DAFF628DE38CD318013B9BB2D0
:10142000AB428041238552002C344042227070BD73
:10143000010010B5040026310069FFF7C6FF022144
:101440002000FFF78EFF10BDF0B5B5B00A222F497E
:101450000AA8FEF7B3FE7021002208AB5B181A70D1
:101460002B4B1C31083321932A4B2B48259308AB77
:101470005B181A80294B75312D93319332AB1A705A
:10148000A923FF312E91309108A95B181A70AA2365
:101490005B18FF211A7033AB1A700AAB22922392A9
:1014A0002A922C922F90269321AB9B180132197609
:1014B0000A2AF9D100210DA8FEF7D4FE2598FFF7DE
:1014C000CFF90026012721AD6B6B2A6B5B00D31887
:1014D0009C4614000DA9A4450ED02278092A07D8ED
:1014E000607821AB9A18107622788F540234F2E794
:1014F00022880B4B9A42F9D131942B6BA34211D124
:101500002A960835012E20D03E00DDE70C22000887
:10151000EC2500080020024000780008007C00084C
:10152000FFFF00006A6B52009B189C4200D1CBE188
:101530001E2308AA9B1819000DA82A96FFF719F96F
:101540001E2308AA9B188342DBD12A9A21A9D30023
:10155000CB18596B1B6B49005B182BAD9C4205D116
:101560000123AB5400232A932D9B31931E2708ABF4
:10157000FF1839000DA8FFF7FCF8AA2608AB0400F5
:10158000F618B84200D0A2E1269B0A22180027A92B
:101590000093FEF713FE002333702B78002B12D13B
:1015A0002A9B002B0FD02E9BD1485A0000932D9BD5
:1015B00019009A180B008A4200D08DE113009B1A83
:1015C0005A1E93412B708D2108ABC9180B78002B44
:1015D00013D12A9B012B10D0309B2F9A5B00C44E55
:1015E000D3181000934204D00232971E3F88B742AE
:1015F000F7D01B1A581E83410B708E2608ABF618C5
:1016000031002800FFF7E3F8864204D0A92308AA96
:101610009B1803221A708023259A11690B431361CA
:101620001E2308AA9B189C4204D00A22B1490AA88A
:10163000FEF7C4FD21A8FFF701FB1020FFF766FCB1
:101640001090FFF775FD11901098FFF7D1FD012262
:10165000A94B129019680024A848114204D1A84946
:101660001A600160062141608023A64ADB025169AD
:10167000A54D0B43536103681A682A401A60DA6863
:101680002A40DA60FFF70AF90A2307950093002839
:1016900004D108AB9B7A009308AB1C89E307DB0FEE
:1016A0000193A307DB0F02936307DB0F0393E306AA
:1016B0009B0F049323065B0F0593E3B20693FFF79A
:1016C0001DFB924F01263B681D003540334243D13C
:1016D0008F4C904B009A23608F4B2061A361631D58
:1016E000DA7723002C338D481D708D4B8D49606156
:1016F000A3636560A5602573E5612562E584A56245
:101700002586E5632464FFF794F8874B8749636473
:10171000A069A564E464FFF78CF820000C2229007E
:101720005030FEF79FFD20000C2229005C30FEF7B0
:1017300099FD20000C2229006830FEF793FD20005F
:101740000C2229007430FEF78DFD200006222900AE
:101750008130FEF787FD3E60069B1F2219009143F2
:101760001B3A002908D0013A202905D03C32934386
:10177000403B5A425A410132654C05992369226225
:10178000FC339A6AD869FFF79FF8029B68495A02AE
:1017900003680B4013430360039B66491A03036805
:1017A0000B4013430360049B07991A0343680B40E3
:1017B00013434360019B002B00D194E08023026817
:1017C000DB00134301270360036800253B430360EC
:1017D0002069FFF723FC0994099B13AC63600AABF3
:1017E000A360464B10AAE360534B25622361FA23A2
:1017F0009B00656217A8236225776561A561139236
:10180000FFF71CFA4D4B08AA1D935A239B181D7015
:1018100021234B4E23634B4B10986363A685FFF740
:10182000A3F9F722099B68331F80099B74331A8040
:10183000099BF03A6A331D80099B76331A80099B15
:10184000053A6C331D80099B78331A80099B08AADE
:101850006E331D80099B7A331F80099B72331E8073
:10186000099B7E331E80099B927A50331A80099B14
:1018700008AAD27A52331A80099B08AA127B5433E1
:101880001A80099B08AA527B56331A80099B08AA22
:10189000927B64331A80099B08AAD27B66331A8034
:1018A000642523689B689968274B0904090D6A1011
:1018B0009000181806688E4202D9AA1A031D013A30
:1018C000002A45DD1500F2E72BAB9F5519E60123F1
:1018D0002A9AAB5404335FE602318E1E3688864264
:1018E00000D167E66BE60368184A13406AE7C04612
:1018F000FFFF00000C220008240400202804002020
:101900000004004800100240FFCFFFFF4402002007
:101910004802002048220008400500200006002060
:1019200030220008800200203C2200088C020020A7
:10193000FFFDFFFFFFEFFFFF2422000800004D53D3
:101940004D520000EC13000050240008FFFBFFFF85
:10195000C24A17A89B1A9B102385FFF745F9002858
:1019600018D06568236828005B68A2689B685C30B3
:101970001B099BB203801189994200D213812B006D
:101980001189623319806423008860355843FEF75B
:10199000BFFD28806568228D2B005E331A802B697D
:1019A000FC335A6A51689A685B6889B2D21AFF237D
:1019B0005B1A9A4205D200232800EB61FFF71EF95B
:1019C0006EE7EB692A6A934200DA69E7002628008D
:1019D000EE61FFF713F928690200FC329368516841
:1019E0005F1A072F02D8FFF719FB59E76F1D009701
:1019F000475CBC466F1DFF7FBC45F4D18B4202D9CA
:101A0000013B9360C65C93680027994202D2013B78
:101A10009360C75C0300FC339A684118821808A8D9
:101A2000FFF746FC08AB1B78B34204D108AB5B78E8
:101A30002869BB4201D02869D5E7FFF74DFC28692A
:101A4000FFF74AFCAB1D0600D877052800D1BBE1A3
:101A500005D8032849D0042873D001214CE0102870
:101A6000FBD106212800FFF7C9FC002843D02869D4
:101A700029000200FC32536896682C319E4200D83F
:101A80009DE05E1C5660C35C00260B706B8DB342FC
:101A900000D8A9E0290028692E31FFF796FCEB8CCD
:101AA0009B19EA18813211785B00EA8D002900D178
:101AB00087E0EB18180011B28C46683007880021C7
:101AC000405E844502DA002F00D08BE018007430AD
:101AD00007880021405E844502DD002F00D081E0B0
:101AE000503301361A80B6B2D0E706212800FFF73E
:101AF00085FC002804D102212800FFF732FCCFE644
:101B0000286900220300FC335A609A606B1DD97F5C
:101B1000FFF7EFFB3100FFF7ECFB2B002C331978BC
:101B2000FFF7E7FB6B8D28695A1E6A85002B30D0C2
:101B3000EB8C5A1C2833EA845B00595BFFF7E3FB0C
:101B4000F0E706212800FFF759FC0028D3D02869C8
:101B500000220300FC335A609A606B1DD97FFFF7A7
:101B6000C8FB3100FFF7C5FB2B002C331978FFF7BA
:101B7000C0FB6B8D28695A1E6A85002B09D0EB8C3F
:101B80005A1C2C335B00EA84EB189988FFF7BBFBE7
:101B9000EFE70300FC339A6859688218411808A8D7
:101BA000FFF786FB08AB59782869FFF7A2FB08AB63
:101BB0001978FFF79EFB2869FFF7B0FB70E600235A
:101BC00062E7EB181900683109888A4201D20029BE
:101BD00008D11900743109888A4200D880E70029A9
:101BE00000D17DE7032187E7002618276B8DB342DC
:101BF00000D8CDE0E88C8019052814D8FEF7F4FB56
:101C000003166183A2B5E068FEF748FE00280AD0FB
:101C10005A2308AA9B181B78002B04D06368A2687B
:101C200050331B8893700136B6B2DFE7E068FEF7E9
:101C300035FE0028F7D05A2308AA9B181B78002BE2
:101C4000F1D06368A26852331B88D370002B07D190
:101C50001F2113780B401370E5E7C046502400089D
:101C6000012B05D11F211378194020230B43F2E7E4
:101C7000022B04D11F21137819404023F6E7032BD0
:101C800004D11F21137819406023EFE7042B05D1FD
:101C90001F211378194080235B42E7E7052B04D10D
:101CA0001F21137819406023F6E7062B04D11F216A
:101CB000137819404023EFE7072BB4D11178273B65
:101CC000D4E7E068FEF7EAFD0028ACD05A2308AA62
:101CD0009B181B78002BA6D06368A26854331B881E
:101CE0001371002B03D1032113788B43B3E7012B2E
:101CF00003D1032011788143B8E7022B93D11178E7
:101D000001339943B2E7E068FEF7C8FD00288AD0A6
:101D10005A2308AA9B181B78002B00D183E763681D
:101D200056331A88A3685A71002A03D11A78BA4325
:101D30001A7078E7012A00D075E719780F32B94395
:101D40000A43F5E76268618D583213888B4205D1EA
:101D500013805A2308AA9B180122E9E7002B00D020
:101D600061E75A2208A9521875E76368A28D5A33B1
:101D70001988914200D056E75A2208A952181278C1
:101D8000002A00D14FE70022A1680A811A804AE7A1
:101D9000286900220300FC335A609A60009BD97FB7
:101DA000FFF7A7FAAB1DD97FFFF7A3FAE98CFFF77E
:101DB000AAFA698DFFF7A7FA29690B00FC339A6824
:101DC0005B688A18C918EAE62800FFF731FB67E567
:101DD00030B50B1A9B10002B15DD14780578A54241
:101DE00003D04578A54201D1013030BD8578A542A8
:101DF00001D10230F9E7C578A54201D10330F4E7FB
:101E00000430013BE7E70B1A022B0AD0032B03D067
:101E1000012B0BD00800E8E7047813789C42E4D04B
:101E20000130047813789C42DFD0013004781378B5
:101E30009C42EFD1D9E70000F0B5050045352B787D
:101E40000400466985B0D8B2052B36D8FEF7CCFA27
:101E50000317377197C6220048321378E118F65CF1
:101E6000097E8E4200D0D4E00133DBB2092B00D8CA
:101E70001800107043424341443423701DE0206930
:101E8000C368DB0719D403691B0616D5FEF7E8FC07
:101E9000022123691A698A431A61012218690243DF
:101EA0001A61230048331A78013BB05C18701B7824
:101EB000206C1B0213430380297005B0F0BD236919
:101EC000DA689206F9D52022D9680A43DA608022BE
:101ED00019690A431A6121002300483147331A78EF
:101EE0000B78E3181A76236C981C636A2064DA0076
:101EF000A218566B7700166B2200F6194632B042D4
:101F000003D01378DBB22B70D7E70126E018283016
:101F10009B190670B34200D900236362DB00E3180B
:101F20001B6B236400230B7001332B70043313707D
:101F3000C3E72769FB68DB07BFD43B691B06BCD539
:101F4000230026002833019302ABDA1D01232A3631
:101F5000310001981370FFF73BFFB04202D14634C5
:101F60002378CFE7019BC01AE0623800FEF778FCC7
:101F7000E36A294AD15CFEF77FFC0423C3E72369A7
:101F8000DA68920699D52022D968244E0A43DA608D
:101F9000802219690A431A61E16ACB00E3181A6BBF
:101FA0005B6B5B00D3181000934204D00232971E83
:101FB0003F88B742F7D061180A001B1A2600591E45
:101FC0008B41200028322A36137031002830FEF76A
:101FD000FEFB0323864296D1002394E72200483279
:101FE00013780133DBB2092B10D9002313702600BC
:101FF00020002A3631002830FEF7E9FB0323864211
:1020000000D100232B704634002336E71370002BD9
:10201000EDD0012377E7C0464C240008FFFF000005
:10202000842210B53D4C002120005200FEF71AF921
:102030000023022019213A4AFF3413601071394AF3
:10204000637113601171384A091813601171374AAE
:102050000E3913601171364A033113601171354A1C
:10206000073913601171344A013113601171334A19
:1020700013601171324A013113601171314A1360DA
:102080001171314A063913601171304A13601171B0
:102090002F4A0131136011712E4A1360117107220A
:1020A0002D490B600A712D490B600A712C490B6098
:1020B0000A712C490B600A712B490B600A712B497C
:1020C0000B600A712A490B600A712A490B600A7178
:1020D00029490B600A7129490B600A7128490B6074
:1020E0000A7128490B600A710121274A1360536065
:1020F0009360D36013615161244A14688C43146067
:10210000234C5460936014680433234313601368B2
:102110001843106013681943116010BD300400208B
:10212000E0050020E805002000060020F005002062
:10213000F805002038050020400500204805002053
:10214000500500205805002060050020680500208B
:10215000A0050020A8050020B0050020B80500203B
:10216000C0050020C8050020D0050020D8050020AB
:1021700070050020780500208005002088050020DB
:1021800090050020980500200806002010E000E0DF
:102190007FBB00000D4885460D480E490E4A0023BE
:1021A00002E0D458C4500433C4188C42F9D30B4A0B
:1021B0000B4C002301E013600432A242FBD3FEF774
:1021C00069FDFDF7D9FFFFF73FF9FEE7001000209A
:1021D0000000002004000020042600080400002065
:1021E00020060020FEE7030010B508001900FDF7E7
:1021F000B3FF10BDF8B5C046F8BC08BC9E4670479A
:0C220000F8B5C046F8BC08BC9E4670470C
:10220C0000000A0000000B6E0001000020000020FE
:10221C000000000000000000FD06000800000000A7
:10222C0000000000650C0008000000000000000029
:10223C0061100008000000000000000025070008E5
:10224C0000C1814001C0804101C0804100C181407A
:10225C0001C0804100C1814000C1814001C080416A
:10226C0001C0804100C1814000C1814001C080415A
:10227C0000C1814001C0804101C0804100C181404A
:10228C0001C0804100C1814000C1814001C080413A
:10229C0000C1814001C0804101C0804100C181402A
:1022AC0000C1814001C0804101C0804100C181401A
:1022BC0001C0804100C1814000C1814001C080410A
:1022CC0001C0804100C1814000C1814001C08041FA
:1022DC0000C1814001C0804101C0804100C18140EA
:1022EC0000C1814001C0804101C0804100C18140DA
:1022FC0001C0804100C1814000C1814001C08041CA
:10230C0000C1814001C0804101C0804100C18140B9
:10231C0001C0804100C1814000C1814001C08041A9
:10232C0001C0804100C1814000C1814001C0804199
:10233C0000C1814001C0804101C0804100C1814089
:10234C0000C0C101C30302C2C60607C705C5C40449
:10235C00CC0C0DCD0FCFCE0E0ACACB0BC90908C8B9
:10236C00D81819D91BDBDA1A1EDEDF1FDD1D1CDCA9
:10237C0014D4D515D71716D6D21213D311D1D01019
:10238C00F03031F133F3F23236F6F737F53534F409
:10239C003CFCFD3DFF3F3EFEFA3A3BFB39F9F83879
:1023AC0028E8E929EB2B2AEAEE2E2FEF2DEDEC2C69
:1023BC00E42425E527E7E62622E2E323E12120E0D9
:1023CC00A06061A163A3A26266A6A767A56564A4C9
:1023DC006CACAD6DAF6F6EAEAA6A6BAB69A9A86839
:1023EC0078B8B979BB7B7ABABE7E7FBF7DBDBC7C29
:1023FC00B47475B577B7B67672B2B373B17170B099
:10240C005090915193535292965657975595945488
:10241C009C5C5D9D5F9F9E5E5A9A9B5B99595898F8
:10242C00884849894B8B8A4A4E8E8F4F8D4D4C8CE8
:10243C004484854587474686824243834181804058
:10244C001F1E0000FE0D0000E40D0000C90D000071
:10245C00AD0D00008F0D0000770D0000590D000030
:10246C00390D0000190D0000F70C0000DB0C00000A
:10247C00B80C0000950C0000700C00004B0C000018
:10248C002B0C0000040C0000DC0B0000B40B000053
:10249C008A0B0000690B00003F0B0000150B0000BD
:1024AC00E90A0000BD0A0000980A00006C0A00004E
:1024BC003F0A0000110A0000E3090000BE090000F9
:1024CC0090090000610900003209000002090000B7
:1024DC00DB080000AD0800007E0800004F0800007B
:1024EC0020080000FA070000CD070000A00700003C
:1024FC00730700004607000022070000F6060000E4
:10250C00CB060000A0060000750600005306000074
:10251C002A06000002060000DA050000B2050000E1
:10252C00920500006C050000460500002205000025
:10253C00FD040000E0040000BE0400009C04000048
:10254C007B0400005A040000400400002104000039
:10255C0003040000E5030000C8030000B103000001
:10256C00960300007B03000061030000470300009A
:10257C00330300001B03000004030000ED02000005
:10258C00D6020000C5020000B00200009B02000051
:10259C008702000074020000650200005302000074
:1025AC0042020000300200001F0200001302000073
:1025BC0003020000F4010000E5010000D501000059
:1025CC00CB010000BD010000B0010000A301000020
:1025DC009601000000000000000000002D0700081C
:0C25EC000000000000000000391E000884
:0825F800350100082120000854
:0426000009010008C4
:0426040000000000D2
:040000050800219539
:00000001FF
