:020000040800F2
:10000000001000208D690008DD690008DD69000826
:1000100000000000000000000000000000000000E0
:10002000000000000000000000000000DD69000882
:100030000000000000000000DD690008011C00084D
:10004000DD69000800000000DD690008DD690008C6
:10005000DD690008DD690008DD690008DD69000868
:1000600000000000D1150008F5150008351600083D
:10007000DD6900083D160008611600080000000058
:10008000851600080000000000000000A916000806
:1000900000000000AF160008B5160008DD69000872
:1000A00000000000DD69000800000000BD16000827
:1000B0000000000000000000000000000000000040
:1000C0000448054B10B5834203D0044B002B00D0ED
:1000D000984710BD70000020700000200000000054
:1000E00006480749091A8B10C90FC91810B54910DD
:1000F00003D0044B002B00D0984710BD70000020A7
:10010000700000200000000010B5074C2378002B81
:1001100009D1FFF7D5FF054B002B02D0044800E0C2
:1001200000BF0123237010BD7000002000000000FC
:10013000106A0008054B10B5002B03D00449054890
:1001400000E000BFFFF7CCFF10BDC046000000007C
:1001500074000020106A000810B5062000F04EFA66
:10016000012000F0ADFBC04670B5064C0500002034
:10017000002C05D0130002300A00290000F084FA98
:1001800070BDC0468906000870B50C4D0C4E761B3C
:10019000B61005D0002408CD01349847A642FAD104
:1001A00006F036FC074D084E761BB61005D000242D
:1001B00008CD01349847A642FAD170BD646E00089C
:1001C000646E0008646E00086C6E000810B5034B86
:1001D0000100186800F00CF910BDC04604000020B2
:1001E00010B5034B0100186800F0ACF810BDC04614
:1001F00004000020F0B5C64600B50F2A43D90B0015
:10020000032603431E400C000300002E40D11500BE
:10021000103D2D09AC462D01A846804400E03B006E
:10022000676825685F60E7681D60DF601F00A5687C
:1002300010379D6010344345F1D165460F230C24DF
:1002400001352D01491913404519144223D08C5909
:10025000AC5104369C1B032CF9D80324043B9B08A7
:1002600001339B002240ED18C918561E002A07D002
:10027000002300E02300CA5C5C1CEA549E42F9D1D2
:1002800004BC9046F0BD0500561E002AF0D1F7E7E9
:10029000561E0500ECE71A00F6E7C046F0B505006B
:1002A00083074AD0541E002A44D0CEB20300032252
:1002B00002E00135013C3DD301332E701342F8D1E9
:1002C000032C2FD9FF220A40150215432A04154397
:1002D0000F2C35D92700103F3F093E01B4461E00C0
:1002E0001A0010366644156055609560D56010326E
:1002F000B242F8D10F260C2201373F012640DB190C
:100300003700224217D03E1FB608B400A4461A0098
:100310001C1D644420C2A242FCD103240136B60055
:100320009B193C40002C05D0C9B21C19197001332F
:100330009C42FBD1F0BD3400F4E714000300BFE79A
:100340002700E0E770B50500002915D00C1F2368D1
:10035000002B27DB280000F005FA244B1A68002A3E
:1003600005D0A2420CD921686018824224D0626074
:1003700028001C6000F0F8F970BDA34203D81A00F1
:100380005368002BF9D111685018A0421BD027D810
:1003900021686018834207D063605460280000F031
:1003A000E3F9E9E7E418D5E718685B688446614437
:1003B000216063605460F1E71068526884466144CC
:1003C00021606260D4E720680918501811608342E8
:1003D000E4D118685B688446614411605360DDE7CE
:1003E0000C2328002B6000F0BFF9C5E78C0000202B
:1003F000F8B50323CD1C9D43083506000C2D2AD2E9
:100400000C25A94229D8300000F0ACF92A4F3A68EF
:10041000002A0AD013685B1B04D441E023685B1BED
:100420001FD522005468002CF8D17B68002B3DD0EA
:100430002900300000F042F8431C2AD00323C41CDA
:100440009C43A04205D0211A300000F037F8431C2D
:100450001FD0256010E0002DD3DA0C23002033607C
:10046000F8BD0B2B05D86368A2421DD0536003E092
:1004700014002360E4182560300000F075F92000B6
:1004800007220B30231D9043C21AE9D01B1AA35038
:10049000E6E70C233000336000F066F90020DFE768
:1004A0000B2BE5D8140053683B60E5E700213000D2
:1004B00000F004F87860BBE78C000020002370B5E2
:1004C000064C05000800236000F0ECF9431C00D046
:1004D00070BD2368002BFBD02B60F9E7F4050020EA
:1004E00010B580210400FFF783FF6064002807D067
:1004F00002000023803208C09042FCD1002010BDD1
:1005000001204042FBE7C046426C10B50023002AA0
:1005100001D0180010BDFFF7E3FF0300F9E7C04664
:1005200070B505000C0016001F2907D8436C002B7E
:1005300009D0A4001B1918681E6070BD1623036043
:1005400001204042F9E7FFF7CBFF002801D16B6C97
:10055000EFE701204042F0E770B505000C001F29CD
:1005600020D8436C002B0ED08A009B181A68002AF2
:1005700009D0012A14D0511C0ED00021200019608E
:100580009047002070BD280000F07AF8220001009A
:10059000280000F061F8F5E7162303600120F1E779
:1005A0000020EFE71623036001204042EAE7C0463F
:1005B00070B505000C001F291DD8436C002B10D00E
:1005C000A2009B181A68002A09D0511C11D0012AD8
:1005D0000DD00021200019609047002070BD01203F
:1005E000FCE7FFF77DFF002805D16B6CE8E70320EF
:1005F000F4E70220F2E701204042EFE710B5034B99
:1006000001001868FFF7A8FF10BDC04604000020D5
:1006100010B5044B0A001B6801001800FFF780FFAB
:1006200010BDC04604000020054B10B51B6800201B
:100630005A6C002A00D010BD1800FFF751FFFAE7EE
:100640000400002010B5034B01001868FFF7B0FF4D
:1006500010BDC04604000020002370B5074C050003
:1006600008001100236000F015F9431C00D070BD94
:100670002368002BFBD02B60F9E7C046F40500206F
:1006800010B500F0FFF810BDF0B546464F46D6460F
:10069000C0B51F002F4B82B01C6805000E009046AD
:1006A000002C2DD063681F2B50DC002D1CD088221D
:1006B000A0589146002834D07832825894469A0047
:1006C00091468144424649460A600121624699406A
:1006D0000A43944680228A46614652008150494628
:1006E000803A8F50022D16D000205A1C02339B00F6
:1006F00062601E5102B01CBC90469946A246F0BDF5
:10070000154C1C60154B002BCCD01B680193882323
:10071000019AE250C6E75546843281580D43855010
:10072000E2E70F4B002B11D084204000FFF74EFD75
:1007300000280BD0802200235200835004328350C3
:100740004B460022E05094466368B8E701204042DF
:10075000D0E7C046280200209C010020286A00083B
:10076000CD0100087047C0467047C04600224308CC
:100770008B4274D303098B425FD3030A8B4244D369
:10078000030B8B4228D3030C8B420DD3FF220902AB
:1007900012BA030C8B4202D31212090265D0030B6A
:1007A0008B4219D300E0090AC30B8B4201D3CB0360
:1007B000C01A5241830B8B4201D38B03C01A5241A2
:1007C000430B8B4201D34B03C01A5241030B8B42A4
:1007D00001D30B03C01A5241C30A8B4201D3CB028F
:1007E000C01A5241830A8B4201D38B02C01A524174
:1007F000430A8B4201D34B02C01A5241030A8B4277
:1008000001D30B02C01A5241CDD2C3098B4201D38E
:10081000CB01C01A524183098B4201D38B01C01A0C
:10082000524143098B4201D34B01C01A5241030983
:100830008B4201D30B01C01A5241C3088B4201D332
:10084000CB00C01A524183088B4201D38B00C01ADF
:10085000524143088B4201D34B00C01A5241411A06
:1008600000D20146524110467047FFE701B5002013
:1008700000F006F802BDC0460029F7D076E77047C1
:100880007047C04658220120014B40421A60704711
:10089000F405002058220120014B40421A607047A5
:1008A000F4050020044A1368002B03D018181060C8
:1008B00018007047014BF9E72C020020F8050020D2
:1008C000FEE7C04680B582B000AF0200FB1D1A7083
:1008D000FB1D1B785BB21F221A40044B0121914083
:1008E0000A001A60C046BD4602B080BD00E100E0CB
:1008F00080B582B000AF78600A00FB1C1A70FB1C48
:100900001B780F221340DAB27B680F210A401201D4
:100910005968F02081430A435A607B681800BD463D
:1009200002B080BD80B582B000AF78600A00FB1CC9
:100930001A70FB1C1B7807221340DAB27B68072170
:100940000A4012025968044801400A435A607B6811
:100950001800BD4602B080BDFFF8FFFF80B582B031
:1009600000AF78600A00FB1C1A70FB1C1B78032286
:100970001340DAB27B6803210A405968032081439F
:100980000A435A607B681800BD4602B080BD000073
:1009900080B582B000AF78600A00FB1C1A70FB1CA7
:1009A0001B7801221340DAB27B6801210A4012044D
:1009B0005968044801400A435A607B681800BD46E4
:1009C00002B080BDFFFFFEFF80B582B000AF78604F
:1009D0000A00FB1C1A70FB1C1B780F221340DAB2B2
:1009E0007B680F210A4092045968044801400A4379
:1009F0005A607B681800BD4602B080BDFFFFC3FF90
:100A000080B582B000AF78607B681A6880214902A7
:100A10000A431A607B681800BD4602B080BD80B5ED
:100A200082B000AF78607B681B689B03DB0FDBB292
:100A300001225340DBB2002B00D0F4E77B681800A2
:100A4000BD4602B080BD80B582B000AF78607B68E3
:100A50001A68802149040A431A607B681800BD4661
:100A600002B080BD80B582B000AF78607B681B6843
:100A70009B01DB0FDBB201225340DBB2002B00D025
:100A8000F4E77B681800BD4602B080BD80B584B035
:100A900000AF78607B685B685B055B0FDAB20F21A3
:100AA0007B181A700A00BB181B78002B13D0BB18D8
:100AB0001B78042B0DD0BB181B78052B07D0BB1857
:100AC0001B78062B01D1064B06E0064B04E0064BD3
:100AD00002E0064B00E0064B1800BD4604B080BDA6
:100AE000808D5B00C0C62D00001BB70000366E0174
:100AF000006CDC0280B582B000AF786039607B6842
:100B00001800FFF7C3FF03001800BD4602B080BD08
:100B100080B582B000AF78607B681A6980210A4393
:100B20001A617B681800BD4602B080BD80B582B0F6
:100B300000AF78607B681B691B06DB0FDBB2180017
:100B4000BD4602B080BD80B582B000AF78607B68E2
:100B50001A6902218A431A617B681A6901210A43D2
:100B60001A617B681800BD4602B080BD80B582B0B6
:100B700000AF78607B68DB689B06DB0FDBB2180098
:100B8000BD4602B080BD80B582B000AF78607B68A2
:100B9000DA6820210A43DA607B681800BD4602B09B
:100BA00080BD80B582B000AF78607B68DB68DB0712
:100BB000DB0FDBB21800BD4602B080BD80B582B04D
:100BC00000AF0200FB1D1A70FB1D1B7880229202F1
:100BD000944663449B021800BD4602B080BD0000ED
:100BE00080B584B000AF78600A4BFB600A4BBB60F5
:100BF0007B681800FFF79AFF031E05D07B68054A43
:100C00005A607B68044A5A607B681800BD4604B08D
:100C100080BDC04623016745AB89EFCD80B582B06A
:100C200000AF78600A00FB1C1A707B681A6901210A
:100C30008A431A617B681A6902210A431A61FB1C04
:100C40001B781800FFF7BAFF02007B685A617B68C7
:100C50001A6940210A431A617B681800BD4602B038
:100C600080BD80B582B000AF386079603A6813000B
:100C70005B019B1A9B009B18DB001800BD4602B06D
:100C800080BD80B582B000AF7860396001223B68DA
:100C90009A4013001A007B689A61C046BD4602B0B4
:100CA00080BD80B582B000AF786039603B6810339A
:100CB00001229A4013001A007B689A61C046BD4623
:100CC00002B080BD80B582B000AF786039603B680B
:100CD0001800BD4602B080BD80B584B000AFF8609A
:100CE000B9607A60FB68BA681A60FB687A685A6013
:100CF000FB681800BD4604B080BD80B582B000AF6F
:100D000078607B681A687B685B6819001000FFF7E1
:100D1000B8FFC046BD4602B080BD80B582B000AF0E
:100D200078607B681A687B685B6819001000FFF7C1
:100D3000B8FFC046BD4602B080BD80B582B000AFEE
:100D400078600A00FB1C1A70FB1C1B78002B04D077
:100D50007B681800FFF7D1FF03E07B681800FFF7FE
:100D6000DCFFFB1C1B781800BD4602B080BD80B5BF
:100D700082B000AF78607B689A6801210A439A606C
:100D80007B681800BD4602B080BD80B582B000AF60
:100D900078607B689A6804210A439A607B6818002F
:100DA000BD4602B080BD80B582B000AF78607B6880
:100DB000DA6801210A43DA607B681800BD4602B098
:100DC00080BD80B582B000AF78600A00FB1C1A704D
:100DD000FB1C1B7801221340DAB27B6801210A4018
:100DE0005200D968022081430A43DA607B68180008
:100DF000BD4602B080BD80B582B000AF78607B6830
:100E0000DA68802189010A43DA607B681800BD46F0
:100E100002B080BD80B582B000AF78600A00FB1CD4
:100E20001A70FB1C1B7803221340DAB27B6892070E
:100E30001969890089080A431A617B681800BD4650
:100E400002B080BD80B582B000AF78600A00FB1CA4
:100E50001A70FB1C1B7803221340DAB27B68032153
:100E60000A40D200D968182081430A43DA607B68BF
:100E70001800BD4602B080BD80B582B000AF78607A
:100E80000A00FB1C1A70FB1C1B7807221340DAB205
:100E90007B6807210A405969072081430A435A6148
:100EA0007B681800BD4602B080BD80B582B000AF3F
:100EB00078607B681B68DB07DB0FDBB21800BD4680
:100EC00002B080BD80B582B000AF78607B681A68E0
:100ED00001210A431A607B681800BD4602B080BD3C
:100EE00080B582B000AF78607B6840331800BD46A3
:100EF00002B080BD80B582B000AF78607B6818001A
:100F0000BD4602B080BD90B583B000AF7860396057
:100F10003B68DBB2013B9B0001229A4013001C009E
:100F20007B6804331800FFF7E5FF03001C60C04630
:100F3000BD4603B090BD80B582B000AF78607B68DD
:100F40001800BD4602B080BD80B582B000AF7860A9
:100F500039607B681800FFF7EEFF03001B683A68F2
:100F6000D2B2013A92000132012191400A001340AD
:100F70005A1E9341DBB21800BD4602B080BD80B559
:100F800082B000AF78607B681A6801210A431A605A
:100F90007B681B68DB07DB0FDBB201225340DBB24F
:100FA000002B00D0F4E77B681800BD4602B080BD7E
:100FB00080B582B000AF78607B681A6801218A43EF
:100FC0001A607B681800BD4602B080BD80B582B053
:100FD00000AF78607B681A6880210A431A607B68DA
:100FE0001800BD4602B080BD80B582B000AF786009
:100FF0007B681A6820210A431A607B681800BD4686
:1010000002B080BD80B582B000AF786039607B6887
:101010003A68DA607B681800BD4602B080BD80B5D2
:1010200082B000AF786039607B683A689A607B680C
:101030001800BD4602B080BD80B582B000AF7860B8
:101040000A00BB1C1A80BB1C1A887B685A607B682C
:101050001800BD4602B080BD80B582B000AF786098
:101060000A00FB1C1A70FB1C1B7801221340DAB229
:101070007B6801210A4012011968102081430A434C
:101080001A607B681800BD4602B080BD80B582B092
:1010900000AF78600A00FB1C1A70FB1C1B7803224F
:1010A0001340DAB27B6803210A40920219680448AF
:1010B00001400A431A607B681800BD4602B080BD3B
:1010C000FFF3FFFF80B582B000AF78600A00FB1C21
:1010D0001A70FB1C1B7803221340DAB27B680321D1
:1010E0000A4012021968044801400A431A607B68EA
:1010F0001800BD4602B080BDFFFCFFFF80B582B086
:1011000000AF78607B681A6802210A431A607B6826
:101110001800BD4602B080BD80B582B000AF7860D7
:101120007B685B689BB21800BD4602B080BD80B58D
:1011300082B000AF78607B6800229A607B681800FC
:10114000BD4602B080BD80B582B000AF78607B68DC
:101150009B68002B05D07B689B68786879680322C0
:1011600098477B681800BD4602B080BD80B582B04C
:1011700000AF78607B689B685A425341DBB218002D
:10118000BD4602B080BD80B582B000AF78603960E6
:101190003B681A687B681B689A4201D23B6800E092
:1011A0007B681800BD4602B080BD80B582B000AF3C
:1011B00078607A6880235B000021D1507A688223AE
:1011C0005B000021D1547B681800BD4602B080BD91
:1011D00080B582B000AF78600A00FB1C1A707B6893
:1011E00000221A607B68FA1C12781A717B6818005A
:1011F000BD4602B080BD000080B582B000AF78600F
:10120000054B1B687A68127952B210009847C046A5
:10121000BD4602B080BDC0466800002080B584B0E5
:1012200000AF786039607B681B68FB60FB68002B4F
:101230000BD0FB685B68002B03D0FB685B68FB602E
:10124000F7E7FB683A685A6002E07B683A681A6020
:10125000C046BD4604B080BD80B584B000AF7860A4
:101260007B681B68FB60FB68002B09D0FB681B6870
:101270001B68FA6810009847FB685B68FB60F2E740
:10128000C046BD4604B080BD80B582B000AF786076
:101290000A00FB1C1A70FB1C1B7801221340DAB2F7
:1012A0007B6801210A4052021968044801400A4340
:1012B0001A607B681800BD4602B080BDFFFDFFFFCD
:1012C00080B582B000AF78600A00FB1C1A70FB1C6E
:1012D0001B7801221340DAB27B6801210A40120315
:1012E0001968044801400A431A607B681800BD462B
:1012F00002B080BDFFEFFFFF80B582B000AF786025
:101300000A00FB1C1A70FB1C1B7803221340DAB284
:101310007B6803210A4012035968044801400A43CC
:101320005A607B681800BD4602B080BDFFCFFFFF4A
:1013300080B582B000AF78607B681A6801210A43EB
:101340001A607B681800BD4602B080BD80B582B0CF
:1013500000AF78607B681A6804210A431A607B68D2
:101360001800BD4602B080BD80B582B000AF786085
:101370007B681A6808210A431A607B681800BD461A
:1013800002B080BD80B582B000AF78607B689A689B
:1013900080210A439A607B681800BD4602B080BD78
:1013A00080B582B000AF78607B689A6840210A43BC
:1013B0009A607B681800BD4602B080BD80B582B0DF
:1013C00000AF78607B681A688021C9000A431A6000
:1013D0007B681800BD4602B080BD000080B582B0B9
:1013E00000AF78607B681A6803490A401A607B681E
:1013F0001800BD4602B080BDFFFBFFFF80B582B084
:1014000000AF78600A00FB1C1A70FB1C1B78002BD5
:1014100004D07B681800FFF7D1FF03E07B68180059
:10142000FFF7DCFF7B681800BD4602B080BD80B5C9
:1014300082B000AF78600A00FB1C1A707B68FA1C4F
:10144000127801210A4012011968102081430A43D1
:101450001A607B681800BD4602B080BD80B582B0BE
:1014600000AF78607B68DB69DB06DB0FDBB218005E
:10147000BD4602B080BD80B582B000AF78607B68A9
:101480002033012252421A607B681800BD4602B028
:1014900080BD80B582B000AF78607B6824331800CF
:1014A000BD4602B080BD80B582B000AF78607B6879
:1014B00028331800BD4602B080BD000090B587B04B
:1014C00000AFF8607A600B243B190A1C1A7000F018
:1014D0006DFF02007B6819001000FFF70BFB030093
:1014E0007B613B191B78072B5CD89A00304BD318D3
:1014F0001B689F467B69962291011800FFF736F919
:1015000003001A00FB68DA604CE07B69E12291017C
:101510001800FFF72BF903001A00FB68DA6041E0BE
:101520007B699622D1011800FFF720F903001A0009
:10153000FB68DA6036E07B69E122D1011800FFF731
:1015400015F903001A00FB68DA602BE07B6996222C
:1015500011021800FFF70AF903001A00FB68DA60AD
:1015600020E07B69E12211021800FFF7FFF8030079
:101570001A00FB68DA6015E07B69962251021800B8
:10158000FFF7F4F803001A00FB68DA600AE07B69F1
:10159000E12251021800FFF7E9F803001A00FB6886
:1015A000DA60C046FB681800BD4607B090BDC04673
:1015B0002C6A000880B582B000AF78607B681A8A18
:1015C00001218A431A82C046BD4602B080BD000098
:1015D00080B500AF064B1800FFF73EFE00F0EEFEB0
:1015E000030001211800FFF78EFCC046BD4680BDF8
:1015F0005803002080B500AF0C4B1800FFF72CFEFD
:1016000000F0DCFE030002211800FFF77CFC084B11
:101610001800FFF721FE00F0D1FE0300032118009F
:10162000FFF771FCC046BD4680BDC0466003002088
:101630006803002080B500AFFEE7000080B500AF72
:10164000064B1800FFF708FE00F0C6FE0300180066
:10165000FFF7B0FFC046BD4680BDC046480300202E
:1016600080B500AF064B1800FFF7F6FD00F0B4FEA2
:1016700003001800FFF79EFFC046BD4680BDC04670
:101680004803002080B500AF064B1800FFF7E4FDCB
:1016900000F0AAFE03001800FFF78CFFC046BD460D
:1016A00080BDC0465003002080B500AFFEE780B586
:1016B00000AFFEE780B500AFFEE7000080B500AFE9
:1016C000064B1800FFF7C8FD00F096FE0300180057
:1016D000FFF7D1FEC046BD4680BDC0464003002096
:1016E00080B582B000AF78607B689B681800BD460B
:1016F00002B080BD80B582B000AF786039607B6891
:101700003A689A607B689B681800BD4602B080BD4D
:1017100080B582B000AF786039607B689A683B68BA
:10172000D2187B689A607B689B681800BD4602B03F
:1017300080BD80B582B000AF78607B6800221A60FF
:101740007B6800225A607B681800BD4602B080BDED
:1017500080B582B000AF786039607B681800FFF711
:10176000E8FF7B683A68DA607B68012252421A61BE
:101770007B681800BD4602B080BD80B582B000AF66
:1017800078607B6800221A607B6800225A607B6860
:101790001800BD4602B080BD80B582B000AF786051
:1017A0007B681B681800BD4602B080BD80B582B062
:1017B00000AF78607B6800221A607B6800225A6064
:1017C0007B681800BD4602B080BD000080B582B0C5
:1017D00000AF7860054A7B681A607B6800225A6017
:1017E0007B681800BD4602B080BDC046B46C0008DE
:1017F00080B582B000AF78607B681800FFF7A3FC6B
:101800007B681800BD4602B080BD000080B584B082
:1018100000AFF860B9607A603B60FB68083318007D
:10182000FFF7C4FFFB681800FFF7D0FF174AFB68FB
:101830001A60FB6800221A61FB6800225A61FB688B
:1018400010331800FFF799FFFB68BA689A61FB68CC
:101850000022DA61FB687A681A62FB683A685A62A9
:10186000FB68BA699A62FB68FA69DA62FB6830332E
:10187000180000F0C9FDFA68BB6911001800FFF7F5
:10188000CDFCFB681800BD4604B080BDA86C000804
:1018900080B582B000AF78607B685B6A1800FFF7A4
:1018A0006EFB7B681B6A1800FFF7FFFA031E04D06B
:1018B0007B681B6A1800FFF705FB7B681B6A180032
:1018C000FFF755FA7B681B6A1800FFF7EEFA030072
:1018D0001A0001235340DBB2002B00D0F2E77B68F3
:1018E0001B6A1800FFF751FAC046BD4602B080BD22
:1018F00080B582B000AF78607B681B681800BD4679
:1019000002B080BD80B582B000AF78607B681A6895
:101910007B685B685B00D3181800BD4602B080BDD1
:10192000B0B58CB000AF78607B68BB62BB6A08332F
:10193000180000F076FD03003B61BB6A0833180015
:1019400000F08CFD0300FB600C23FA1810243B19F7
:101950001100180000F092FD031E0FD03B19180073
:1019600000F0ABFD0300FB61FB6900211800FFF7ED
:10197000C1FE3B19180000F092FDE5E77B680833D3
:10198000180000F04EFD03007B617B6810337B6222
:101990007B6A1800FFF7ACFF0300FB627B6A18004C
:1019A000FFF7B0FF03003B62FA6A3B6A9A423BD002
:1019B00008217B18FA6A12881A807B18180000F038
:1019C00086FD03001C0014257B19180000F075FD2E
:1019D000030021001800FFF79BFE7B19180000F0A0
:1019E0005EFD0300180000F07CFD04007B680833F6
:1019F000180000F033FD0300BB611823FB1818002A
:101A000000F06FFD0300E31A5A425341DBB2002B92
:101A100006D07B680833180000F003FD03007B61EB
:101A2000FB6A0233FB62BFE77B683033180000F0CB
:101A300062FD031E04D07B683033180000F06CFD9B
:101A4000C046BD460CB0B0BD80B582B000AF786076
:101A500039607B683A685A60C046BD4602B080BDB6
:101A600080B582B000AF78607B6800229A60C04683
:101A7000BD4602B080BD80B582B000AF78600A007C
:101A8000FB1C1A70FB1C1B7801221340DAB27B6826
:101A900001210A4092001968042081430A431A6018
:101AA000C046BD4602B080BD80B582B000AF786050
:101AB0007B681A6802210A431A60C046BD4602B01C
:101AC00080BD80B582B000AF78600A00FB1C1A7040
:101AD0007B68FA1C127801210A40196801208143B1
:101AE0000A431A60C046BD4602B080BD80B582B0D0
:101AF00000AF786039607B683A681100180000F028
:101B000020FDC046BD4602B080BD80B582B000AFAA
:101B1000786039607B683A681100180000F030FD89
:101B2000C046BD4602B080BD90B587B000AF7860BA
:101B30007B687B617B69180000F072FD0300FB602D
:101B40007B69180000F089FD0300BB600823FA18C8
:101B50000C243B191100180000F08FFD031E10D05B
:101B60003B19180000F0A8FD03003B613B691B68AE
:101B70001B683A69100098473B19180000F08EFD69
:101B8000E4E7C046BD4607B090BD80B582B000AF67
:101B900078607B6800221A607B6800225A607B684C
:101BA0001800BD4602B080BD80B582B000AF78603D
:101BB0007B681800FFF7E9FF7B681800BD4602B09C
:101BC00080BD80B582B000AF78607B681800FFF7F9
:101BD000EBFF7B6800229A607B680022DA607B68FA
:101BE00000221A617B6801225A6100F06FFD030038
:101BF000180000F073FD7B681800BD4602B080BD80
:101C000080B500AF034B180000F07AF8C046BD461F
:101C100080BDC0468003002080B582B000AF7860F0
:101C20007B6800221A607B6800225A607B6818007B
:101C3000BD4602B080BD000080B582B000AF7860C4
:101C40007B6804331800FFF7E7FF044A7B681A60DB
:101C50007B681800BD4602B080BDC0469C6C000881
:101C600080B582B000AF78607B681800FFF7E4FFB2
:101C7000054A7B681A607B6800221A737B6818002B
:101C8000BD4602B080BDC046906C000880B582B0F1
:101C900000AF786039607B681800FFF7E1FF0A4AFF
:101CA0007B681A607B6800221A617B6800225A6197
:101CB0003A687B681100180000F038F87B6818005B
:101CC000BD4602B080BDC046846C000880B582B0BD
:101CD00000AF78607B685B695A1C7B685A61C046BC
:101CE000BD4602B080BD80B582B000AF78607B6831
:101CF0001B681800FFF718FFC046BD4602B080BD44
:101D000080B582B000AF78607B6808331800FFF7B9
:101D10000BFF7B68103318007B685B697A681900D9
:101D200000F006FDC046BD4602B080BD80B582B061
:101D300000AF786039607B683A681A617B68180088
:101D400000F034F8C046BD4602B080BD80B582B018
:101D500000AF78607B6859697B681A6900239142FB
:101D60005B41DBB2002B04D07B6800225A61012367
:101D700000E000231800BD4602B080BD80B582B0EF
:101D800000AF78607B681B7B002B08D07B6800224B
:101D90001A737A68044B11001800FFF7B6FEC046AC
:101DA000BD4602B080BDC0468003002080B582B031
:101DB00000AF78607B681B7B01225340DBB2002BB5
:101DC00008D07B6801221A737A68044B110018004E
:101DD000FFF78CFEC046BD4602B080BD80030020E8
:101DE00080B582B000AF78607B685B781B021AB266
:101DF0007B681B781BB213431BB29BB21800BD4615
:101E000002B080BD80B584B000AFF860B9607A6080
:101E1000FB68BA681A60FB687A685A60FB68180049
:101E2000BD4604B080BD80B582B000AF7860396037
:101E30007B683A681A607B681800BD4602B080BDB6
:101E400080B582B000AF78607B681B681800BD4623
:101E500002B080BD80B582B000AF78607B681B683F
:101E60001800BD4602B080BD80B582B000AF78607A
:101E70007B681B681800BD4602B080BD80B582B08B
:101E800000AF786039607B681A683B681B68D31ABA
:101E90005A1E9341DBB21800BD4602B080BD80B52A
:101EA00082B000AF78607B681B689A1C7B681A6000
:101EB0007B681800BD4602B080BD80B584B000AF1D
:101EC00078607B681A680C23FB1811001800FFF774
:101ED000AAFFFB681800BD4604B080BD80B584B081
:101EE00000AF78607B681A687B685B685B00D2181B
:101EF0000C23FB1811001800FFF795FFFB68180072
:101F0000BD4604B080BD80B500AF00F09DFDC04669
:101F1000BD4680BD80B582B000AF786039603A6858
:101F20007B681100180000F0BFFD7868BD4602B064
:101F300080BD80B582B000AF7860102000F032FC28
:101F400002007B681A607B681B68180000F0C2FC06
:101F500002007B685A607B681B68180000F017FD60
:101F600002007B689A607B681800BD4602B080BDA5
:101F700080B500AF0F4B1B68012213400AD100F05F
:101F8000B3FD01000C4B09221800FEF7A5FE094B1A
:101F900001221A6000F00AFA0300180000F0ABFDFD
:101FA000054B1B68180000F0B4FD034B1800BD463C
:101FB00080BDC046A00300209803002080B500AF7C
:101FC0000F4B1B68012213400AD100F08DFD010068
:101FD0000C4B0A221800FEF77FFE094B01221A6003
:101FE00000F0E4F90300180000F085FD054B1B68C4
:101FF000180000F0A0FD034B1800BD4680BDC04690
:10200000AC030020A403002080B500AF0F4B1B6879
:10201000012213400AD100F067FD01000C4B082299
:102020001800FEF759FE094B01221A6000F0BEF9B4
:102030000300180000F05FFD054B1B68180000F05E
:102040008CFD034B1800BD4680BDC046B803002080
:10205000B003002080B500AF014B1800BD4680BD25
:102060004003002080B582B000AF78607B68180024
:10207000BD4602B080BD80B582B000AF78607B689D
:102080001800FFF7EFFF0300180000F0F4FD010057
:102090007A6880235B00D358CB181800BD4602B085
:1020A00080BD000080B500AF014B1800BD4680BD6B
:1020B00060030020F0B5DE4657464E464546E0B583
:1020C0008DB006AF00F00BFD09237B610A233B6155
:1020D0000723FB600423BB6004237B60644B1B6805
:1020E0000122134028D1FFF743FF8146FFF766FF27
:1020F0008246FFF789FF834600F07EF9040000F076
:102100005DF9050000F036FD060000F03BFD80465D
:1021100000F040FD0300574805930623049343460F
:1021200003930296019500945B465246494600F09F
:102130004AFD4F4B01221A6000F038F903003B6062
:102140003B68180000F07CFD4A4A8C235B00D358A2
:102150001800FFF709F903001800FFF7F7F803006C
:102160001800FFF70FF903001800FFF719F9FFF740
:1021700071FF03001800FFF73FF83B68180000F0FC
:102180006DFD3C4A8E235B00D35801211800FEF7F9
:1021900063FF0400374B1800FFF76DFF03001900C1
:1021A0002000FEF72FFF0400324A8C235B00D35837
:1021B0001800FFF778F9030019002000FEF72FFF41
:1021C00003001800FEF702FF030000211800FEF7CD
:1021D0005DFF030000211800FEF774FF03001800E4
:1021E000FEF78CFFFFF75EFF03001800FFF704F80F
:1021F000204A90235B00D35800211800FEF72CFFE3
:1022000004001C4B1800FFF736FF030019002000E4
:10221000FEF7F8FE0400174A8C235B00D358180021
:10222000FFF737F9030019002000FEF7F8FE03005E
:10223000FF211800FEF700FF03001800FEF7C6FE9E
:10224000030000211800FEF721FF03000021180001
:10225000FEF738FF03001800FEF7C6FE054B180016
:10226000BD4607B03CBC90469946A246AB46F0BD81
:10227000E8040020BC030020B0B586B002AF020025
:102280003B1D1980FB1D1A70FFF714FF0300FB6054
:10229000264B1B680122134010D1FFF7DBFE05001F
:1022A000FFF700FF0400FA68FB1D1978204800942E
:1022B0002B0000F0EDFC1D4B01221A603B1D1B782A
:1022C0001F229343DBB2002B1CD03B1D1B781F2227
:1022D0009343DBB2202B13D03B1D1B781F2293436B
:1022E000DBB2402B0AD03B1D1B781F229343DBB28D
:1022F000602B01D1022306E0012304E0022302E067
:10230000032300E004230A4A1362094B1B693A1DA8
:102310001100180000F026FD054B1B69180000F0A5
:1023200067FD034B1800BD4604B0B0BD600500203A
:10233000EC040020B0B5A4B000AF88243B1918000D
:1023400008231A000021FDF7A9FF3B190A221A7180
:102350004023FB183A1911001800FFF7DBFD342564
:102360007B191800FFF7E5FD3B191A793B195B88CB
:10237000191C1000FFF780FF03003B633A6B3B1909
:102380007919380000F06AFD3B6B6422FF219952F5
:102390003B6B5E22012199523B6B6622FF219952D1
:1023A0003B00180000F08CFDFAE7000080B500AF9C
:1023B000014B1800BD4680BD0010024080B500AF43
:1023C000044B19000820FEF77DFC03001800BD46F1
:1023D00080BDC0460000024080B500AF014B180030
:1023E000BD4680BD002C014080B500AF014B1800F8
:1023F000BD4680BD0004004080B500AF014B180011
:10240000BD4680BD0038014080B582B000AF786025
:102410007B681800FEF78BFE7B681800BD4602B093
:1024200080BD80B584B000AF78607B681A680C23EB
:10243000FB181100180000F093FDFB681800BD4662
:1024400004B080BD80B582B000AF78607B680022A8
:102450001A607B681800BD4602B080BD80B584B0AC
:1024600000AF78600023FB600C23FB181800FFF717
:10247000E9FFFB681800BD4604B080BD80B582B09E
:1024800000AF786039607B681A683B681B68D31AB4
:102490005A1E9341DBB21800BD4602B080BD80B524
:1024A00082B000AF78607B681B685A687B681A60EE
:1024B0007B681800BD4602B080BD80B582B000AF19
:1024C00078607B681B681800BD4602B080BD80B58F
:1024D00082B000AF78607B681B881800BD4602B0F0
:1024E00080BD80B582B000AF78607B681B68180043
:1024F000BD4602B080BD80B582B000AF78607B6819
:102500001800FEF733FE03001A0001235340DBB22C
:102510001800BD4602B080BD80B582B000AF7860C3
:102520007B681800FEF722FE031E01D004F061FA5A
:102530007B68DB687A6810009847C046BD4602B0E9
:1025400080BD80B582B000AF786039607B685A6822
:102550003B685A607B685B68002B03D07B685B68D4
:102560003A689A607B683A685A607B681B68002BFF
:1025700002D17B683A681A60C046BD4602B080BD91
:1025800080B582B000AF786039603B685B68002B33
:102590000ED03B689B68002B0AD03B685B683A68AA
:1025A00092689A603B689B683A6852685A602DE06E
:1025B0003B689B68002B0FD03B689A687B681A6069
:1025C0007B681B6800225A607B681B68002B1DD14A
:1025D0007B6800225A6019E03B685B68002B0FD0D3
:1025E0003B685A687B685A607B685B6800229A6027
:1025F0007B685B68002B09D17B6800221A6005E0CC
:102600007B6800221A607B6800225A603B680022C7
:102610005A603B6800229A60C046BD4602B080BD49
:1026200080B584B000AF78607B681A680C23FB1813
:102630001100180000F0A1FCFB681800BD4604B0B2
:1026400080BD80B582B000AF78607B6800221A60E0
:102650007B681800BD4602B080BD80B584B000AF75
:1026600078600023FB600C23FB181800FFF7E9FFDC
:10267000FB681800BD4604B080BD80B582B000AFD5
:10268000786039607B681A683B681B68D31A5A1EE9
:102690009341DBB21800BD4602B080BD80B582B068
:1026A00000AF78607B681B689A687B681A607B68FB
:1026B0001800BD4602B080BD80B582B000AF786022
:1026C0007B681B681800BD4602B080BD80B500AFB6
:1026D000014B1800BD4680BD10E000E080B584B01D
:1026E00000AF7860114BFB607B6800211800FFF79A
:1026F000E8F90E4A7B6811001800FFF7A5F97B681E
:102700001800FFF7ADF97B6801211800FFF7B3F956
:102710007B681800FFF7C8F97B6801211800FFF7F4
:10272000D0F9C046BD4604B080BDC0467FBB0000A6
:1027300080B584B000AFF860B9607A60FB681A6851
:10274000511CFB681960B9681000FEF795F80B0082
:102750005A425341DBB2002B03D03B1D1800FFF758
:10276000C2FAC046BD4604B080BD000080B500AFCF
:10277000014B1800BD4680BD5803002080B582B0D3
:1027800000AF7860064A7B681A607B6830331800B7
:10279000FFF72EF87B681800BD4602B080BDC0462A
:1027A000A86C000890B589B002AF786008237B61FF
:1027B000FFF7DCFF03003B613D4B1B680122134028
:1027C00018D100F0E7FB040000F0ECFB0200796890
:1027D00038480D2301933B69009313002200FFF753
:1027E00015F8334B01221A60334A3449314B180033
:1027F00004F0F5F8FFF7DAFD0300180000F0DAFB4B
:102800002C4B1B6A00211800FEF71CFB030018006C
:10281000FEF7F1FA03001800FEF7C5FA03000121E4
:102820001800FEF7CEFA234B1B6A02211800FEF7B0
:10283000F1FA030007211800FEF71EFBFFF7B6FDB3
:102840000300180000F0C4FB1A4B1B6A1800FEF7C7
:1028500047FB0300FB60174B5B6AFA681100180026
:10286000FEF7DDFB030000211800FEF7F5FB030077
:1028700001211800FEF70AFC030001211800FEF7F1
:1028800021FC03001800FEF7A1FB03001800FEF76F
:1028900035FC03001800FEF7A7FB064B9B6A1800E7
:1028A000FEF7AAFC034B1800BD4607B090BDC0461A
:1028B000A405002064050020000000207D270008FA
:1028C00080B582B000AF78607B685B681800BD4659
:1028D00002B080BDB0B584B000AF786000F0ACFB52
:1028E0000300FB607B681A6A7B68DB6A19001000D2
:1028F00000F0BCFB0300BB60FB68BA681A617B6830
:1029000008331C007B6808331800FFF78AFD0500B8
:102910007B6808331800FFF7A1FD0100BB681A00AF
:10292000280000F01AFC0100FB681A00200000F0EB
:10293000B1FB7B6810331A007B689B69190010009B
:1029400000F020FC7B685B6A1800FEF731FB040096
:102950007B6810331800FEF71FFF030019002000EA
:10296000FEF750FB04007B6810331800FFF7A8FF48
:1029700003009BB219002000FEF75EFB0300180065
:10298000FEF7FDFAFB681800BD4604B0B0BDB0B557
:1029900084B000AF786000F049FC0300FB607B6806
:1029A0001A6A7B68DB6A1900100000F059FC03000A
:1029B000BB60FB68BA681A617B6808331C007B68DF
:1029C00008331800FFF72DFD05007B680833180059
:1029D000FFF744FD0100BB681A00280000F054FC1A
:1029E0000100FB681A00200000F054FB7B681033E4
:1029F0001A007B689B691900100000F0C3FB7B681C
:102A00005B6A1800FEF7D4FA04007B6810331800E4
:102A1000FEF7C2FE030019002000FEF7F3FA0400DF
:102A20007B6810331800FFF74BFF03009BB21900BF
:102A30002000FEF701FB03001800FEF7A0FAFB6878
:102A40001800BD4604B0B0BD80B500AFFFF7AEFCC6
:102A500003001800FDF7D4FF03001800FDF7DFFFA7
:102A6000030000211800FDF743FF030000211800B8
:102A7000FDF758FF030002211800FDF76FFF030068
:102A800004211800FDF7A0FF030001211800FDF745
:102A90007FFF03001800FDF7D6FF03001800FDF7C5
:102AA000E1FFC046BD4680BD80B582B000AF786012
:102AB00039607B68180000F023FC7B683A685A6133
:102AC0003A687B681100180000F084FC7B681800ED
:102AD000FFF76CF97B681800BD4602B080BD80B579
:102AE00000AFC046BD4680BD80B500AF9023DB057A
:102AF0001800BD4680BD80B582B000AF78607B68AD
:102B00005A69802189020A435A61C046BD4602B013
:102B100080BD80B582B000AF78607B68022118006C
:102B200000F07AFC7B680121180000F091FCC0469F
:102B3000BD4602B080BD80B582B000AF78607B68D2
:102B40000221180000F09EFC7B680121180000F0B3
:102B5000B5FCC046BD4602B080BD80B582B000AFB6
:102B600078607B680121180000F0C4FCC046BD46B7
:102B700002B080BD80B500AF014B1800BD4680BDDE
:102B80001C00024080B500AF014B1800BD4680BD5F
:102B90003000024080B500AF02231800BD4680BD62
:102BA00080B582B000AF78607A6880235B00002136
:102BB000D1507A6882235B000021D1507B681800D5
:102BC000BD4602B080BD80B584B000AFF860B9608A
:102BD0007A603B60FB681800FFF7E2FFFA68842325
:102BE0005B00B968D150FA6886235B007968D150E0
:102BF000FA6888235B003968D150FA688A235B0041
:102C0000F969D150FA688C235B00B969D150FA6830
:102C10008E235B00396AD150FA6890235B00796A91
:102C2000D150FA6892235B00B96AD150FA689423B4
:102C30005B00F96AD150FB681800BD4604B080BD46
:102C400080B582B000AF78607B689A698021C90145
:102C50000A439A61C046BD4602B080BD80B582B0CD
:102C600000AF78607B685A6901210A435A61C04607
:102C7000BD4602B080BD80B582B000AF78607B6891
:102C8000180000F053FC03001800BD4602B080BDE0
:102C900090B585B000AFF8607A603B600B243B19BB
:102CA0000A1C1A70FB681800FEF7DAFF2C4AFB6852
:102CB0001A60FB687A681A61FB683A685A61FB68B7
:102CC0003A6A9A61FB680022DA61FB6800221A62A4
:102CD000FB683A19242112785A54FB680022DA84DE
:102CE000FB6800221A85FB6800225A85FB682C22AB
:102CF00000219954FB6800221A86FB683833FA6871
:102D00001100180000F020FCFB684433FA68110041
:102D1000180000F037FCFB6850330822002118002F
:102D2000FDF7BCFAFB6800229A65FB685C33082259
:102D300000211800FDF7B2FAFB6864330822002175
:102D40001800FDF7ABFAFB686D229B1804220021E6
:102D50001800FDF7A3FAFB681800BD4605B090BD4A
:102D6000546C000880B582B000AF786039607A6832
:102D70008C235B00D0583B681B781B065B0FDBB2D3
:102D800019007A6892235B00D3581A00FEF796FB6D
:102D900002003B681B789B07DB0FDBB219001000B9
:102DA000FEF772FA02003B681B785B07DB0FDBB2B1
:102DB00019001000FEF784FA02003B681B78DB065E
:102DC0009B0FDBB219001000FEF796FA02003B6879
:102DD0001B78DB07DB0FDBB219001000FEF70EFBE0
:102DE00003001800FEF7A4FAC046BD4602B080BD3D
:102DF00080B582B000AF78607B68180000F0E0FB1F
:102E00007A6888235B00D35800211800FDF795FFEE
:102E10007A688E235B00D3581800FEF7C9F87A68E9
:102E200090235B00D3581800FEF7C2F80300FF217F
:102E30001800FEF701F97A6890235B00D358180058
:102E4000FEF79DF87A688C235B00D35801211800A7
:102E5000FEF7EDFAC046BD4602B080BD90B585B024
:102E600000AFF860B9607A603B60FB68BA681A60CE
:102E7000FB687A685A60FB6808331C000120002157
:102E8000FDF7EFFE030019002000FEF7FFFEFB68D0
:102E90003A681A62FB6800229A84FB6821229A62CF
:102EA000FB68064ADA62BB681B681800FEF7F0FC94
:102EB000FB681800BD4605B090BDC046EC1300008D
:102EC00080B582B000AF78607B681B689B68180093
:102ED000FEF706FC03009AB27B681100180000F0B0
:102EE00081FB7B6808331800FEF730FF031E0CD00F
:102EF0007B681B685B681800FEF7F2FB03001A0989
:102F00007B685B6891B2582299527B685B687A68EB
:102F1000918C5A2299527B685B687A68110018007C
:102F200000F09FFBC046BD4602B080BD80B582B0B8
:102F300000AF78607B681800BD4602B080BD00001D
:102F400080B582B000AF78607A68044B1100180039
:102F500000F018FCC046BD4602B080BD3002002023
:102F600080B582B000AF786039607B683A681A60DB
:102F70007B681800BD4602B080BD80B582B000AF4E
:102F8000786039607B683A681A607B681800BD46D3
:102F900002B080BD80B500AF014B1800BD4680BDBA
:102FA0000024014080B500AF014B1800BD4680BD34
:102FB0000800024080B582B000AF78607B689A69F3
:102FC000802189000A439A61C046BD4602B080BD97
:102FD00080B582B000AF78607B685A6901210A43EE
:102FE0005A61C046BD4602B080BD000080B500AF4A
:102FF0000F4B1B68012213400AD1FFF775FD01003A
:103000000C4B00221800FDF767FE094B01221A60E5
:10301000FFF7CCF903001800FFF76DFD054B1B68A7
:10302000180000F0C5FB034B1800BD4680BDC0462C
:10303000B0050020A805002080B500AF094B1B6833
:10304000012213400AD1FFF7D1FF0200064B110005
:103050001800FEF77DFB034B01221A60024B18009B
:10306000BD4680BDC8050020B405002080B582B0F3
:1030700000AF786039603B680D2B06D17B689A6A97
:1030800001210A439A62002300E000231800BD4694
:1030900002B080BDB0B586B000AFF860B9607A60AC
:1030A0000823FB181800FFF71CFA0400FB6818003F
:1030B000FFF7B7F903003B611023FB181800FFF777
:1030C00010FA0300E31A5A425341DBB2002B06D038
:1030D0007A68FB681100180000F077FB39E00823DC
:1030E000FB181800FFF7FDF90400FB681800FFF754
:1030F000B5F903007B611423FB181800FFF7F1F901
:103100000300E31A5A425341DBB2002B06D07A681F
:10311000FB681100180000F077FB1AE008257B1906
:10312000180000F090FB03001A687B681A607B1996
:103130001800FFF7D6F902007B685A607C687B199B
:10314000180000F080FB03001C607B681B687A6835
:103150005A60C046BD4606B0B0BD80B584B000AF71
:10316000F860B9607A607B68180000F076FB0200B6
:10317000B968FB68180000F085FB03001800BD4625
:1031800004B080BD80B582B000AF786039607B68E4
:103190001B68002B08D07B681B68002B04D07B6861
:1031A0001B681800FFF7CCFE7B685A683B68D21892
:1031B0007B685A607B685B68084A934201D85B0071
:1031C00001E001235B42180000F072FB02007B6803
:1031D0001A60C046BD4602B080BDC046FCFFFF3F3E
:1031E00080B500AF0F4B1B68012213400AD1FFF7D7
:1031F0007BFC01000C4B01221800FDF76DFD094B13
:1032000001221A60FFF7D2F803001800FFF773FCE1
:10321000054B1B68180000F05DFB034B1800BD4612
:1032200080BDC046D4050020CC05002080B500AF8D
:10323000094B1B68012213400AD1FFF7D1FF02009E
:10324000064B11001800FEF783FA034B01221A60A7
:10325000024B1800BD4680BDEC050020D8050020BB
:1032600080B582B000AF786039603B680D2B06D125
:103270007B689A6A02210A439A62012300E00023D4
:103280001800BD4602B080BD80B584B000AFF860C4
:10329000B9607A607B68180000F029FB0200B96809
:1032A000FB68180000F038FB03001800BD4604B0AE
:1032B00080BD80B500AF8023DB001800BD4680BD17
:1032C00080B500AF8023DB001800BD4680BD80B50F
:1032D00082B000AF78607B6800221A607B681800BB
:1032E000BD4602B080BD80B582B000AF78607B681B
:1032F00000221A707B681800BD4602B080BD000035
:10330000B0B582B000AF78607B681800FEF7A8FC0B
:103310002F4A7B681A6000F035FB02007B681A6157
:103320007B6800225A617B6800221A627B68203326
:103330001800FFF7CCFF7B6800229A847B6800228C
:103340009A627B682C331C0000F0FCFA03001D001D
:10335000FFF7AFFF03005B081A0029002000FEF70B
:1033600051FD7B6834331C0000F0F4FA03001D00AB
:10337000FFF7A6FF03005B081A0029002000FEF7F4
:1033800041FD7B682C330021180000F0EBFA0300AC
:103390007C681800FEF791FD0300E3637B68402220
:1033A000002199547B684122002199547B68422274
:1033B000002199547B684422002199547B6844334E
:1033C0001800FFF790FF7B681800BD4602B0B0BD43
:1033D000786C000880B582B000AF786039607B6897
:1033E0003A685A617B68180000F0EEFA03001A0090
:1033F00001235340DBB2002B09D03B68180008239F
:103400001A000021FCF74AFF3B680A221A71C046E5
:10341000BD4602B080BD000080B582B000AF7860CC
:103420000A00FB1C1A70FB1C1B7803221340DAB243
:103430007B6803210A4092041968044801400A434A
:103440001A607B681800BD4602B080BDFFFFF3FF25
:1034500080B582B000AF78600A00FB1C1A70FB1CBC
:103460001B780F221340DAB27B680F210A40120149
:10347000596AF02081430A435A627B681800BD46AE
:1034800002B080BD80B582B000AF78600A00FB1C3E
:103490001A70FB1C1B7803221340DAB27B680321ED
:1034A0000A4012051968044801400A431A607B6803
:1034B0001800BD4602B080BDFFFFCFFF80B582B0CF
:1034C00000AF78600A00FB1C1A70FB1C1B780F22EF
:1034D0001340DAB27B680F210A401202596A04488D
:1034E00001400A435A627B681800BD4602B080BDA5
:1034F000FFF0FFFF80B582B000AF78600A00FB1CD0
:103500001A70FB1C1B7803221340DAB27B6803217C
:103510000A4012041968044801400A431A607B6893
:103520001800BD4602B080BDFFFFFCFF80B582B031
:1035300000AF78607B68180000F0EDFB0300180016
:10354000BD4602B080BD000080B582B000AF78609B
:1035500039607B681800FEF739F9094A7B681A6000
:103560007B683A689A603B685B697A68110018006A
:10357000FDF754FE7B681800BD4602B080BDC04612
:103580006C6C000880B582B000AF786039607B68F1
:103590001800FEF71BF9094A7B681A607B683A68D5
:1035A0009A603B689B697A6811001800FDF736FE47
:1035B0007B681800BD4602B080BDC046606C000844
:1035C00080B582B000AF78607A6880235B0000210C
:1035D000D1507A6882235B000021D150C046BD469D
:1035E00002B080BDB0B584B000AF78600A00BB1CEB
:1035F0001A80BB1C1B88002B00DA0F331B119AB2F8
:10360000BB1C1A800D4B180000F08EFB04000B4B06
:10361000180000F092FB0100BA1C2B1C200000F0E7
:1036200097FB0300FB60FA68044BD31A9B109AB215
:103630007B689A84C046BD4604B0B0BDBC6C00082F
:1036400080B582B000AF78607A6882235B00D25880
:10365000796880235B00CB58D31A1800BD4602B0AE
:1036600080BD80B582B000AF786039607B681B692F
:10367000180000F083FB031E07D07B680022DA618C
:103680007B681800FEF77AFB79E07B68DA697B6873
:103690001B6A9A4200DA71E07B680022DA617B687B
:1036A0001800FEF76BFB7B681B691800FFF7C8FF6B
:1036B00002000721002391425B41DBB2002B05D0C1
:1036C0007B681B691800FFF793FB58E07B681B6958
:1036D000180000F06FFB03001A787B6824215B5C04
:1036E000D31A5A1E9341DBB2002B05D07B681B69AD
:1036F0001800FFF77DFB42E07B68180000F050FCEB
:1037000003001A0001235340DBB2002B05D07B6875
:103710001B691800FFF76CFB31E07B681B69180020
:1037200000F087FC7B681B69180000F082FC030036
:1037300019007B68252299547B6825229B5C102BFD
:103740000AD015D8032B02D0052B0CD010E07B68D3
:10375000180000F096FC12E03A687B68110018002F
:1037600000F066FD0BE07B68180000F009FE06E043
:103770007B680121180000F063FE00E0C046BD46F2
:1037800002B080BD80B584B000AF786039603B681E
:10379000FB60FB68043BFB60FB681B681A1DF96853
:1037A0007B68180000F0F8FEC046BD4604B080BD3E
:1037B00080B582B000AF78607B680321180000F00C
:1037C00017FFC046BD4602B080BD80B582B000AFD5
:1037D000786039607B681A683B685A607B681B6850
:1037E000002B03D07B681B683A681A607B683A68D4
:1037F0001A607B685B68002B02D17B683A685A606C
:10380000C046BD4602B080BD80B582B000AF7860D2
:1038100039607B685A683B681A607B685B68002B7C
:1038200003D07B685B683A685A607B683A685A6084
:103830007B681B68002B02D17B683A681A60C0461F
:10384000BD4602B080BD80B582B000AF78607B68B5
:103850001B681800BD4602B080BD80B584B000AFC3
:1038600078603B1D180000F0DCFE03001A680C2392
:10387000FB181100180000F0DDFEFB681800BD46C3
:1038800004B080BD90B585B000AFF860B9607A60D3
:103890000C23FB18180000F0DFFE7A68B968F8689E
:1038A000231C00F0E1FE03001800BD4605B090BDEA
:1038B00080B582B000AF78607A68054B11001800BF
:1038C00000F001FF03001800BD4602B080BDC046F5
:1038D0003002002080B582B000AF78607B680321A1
:1038E000180000F010FFC046BD4602B080BD80B594
:1038F00084B000AF78603B1D180000F01EFF03008D
:103900001A680C23FB181100180000F01FFFFB6859
:103910001800BD4604B080BD90B585B000AFF8601A
:10392000B9607A600C23FB18180000F095FE7A68E5
:10393000B968F868231C00F01BFF03001800BD469F
:1039400005B090BD80B500AF014B1800BD4680BDED
:10395000007C000880B500AF014B1800BD4680BD5B
:103960000078000880B582B000AF786039607B686D
:103970003A681100180000F02AFF03001800BD4645
:1039800002B080BD80B500AF014B1800BD4680BDC0
:1039900000200240B0B582B000AF78607B681B6841
:1039A000180000F04DFF04007B681B68180000F051
:1039B00050FF03002A1C1900200000F054FF0300F0
:1039C0001800BD4602B0B0BDF0B5C64600B58EB019
:1039D00000AF78607B681833180000F005FF040022
:1039E0007B681833180000F008FF0100FF237B619B
:1039F0001423FB181A00200000F009FF0C243B19C7
:103A0000180008231A000021FCF748FC3B19BB6092
:103A10007B681B691800FDF7E3F800237B637B6874
:103A20002C33180000F036FF02007B6B93429B4161
:103A30005B42DBB2002B00D181E07B682C337A6BD8
:103A400011001800FFF78EFF03001800FEF735FA8B
:103A500005007B682C337A6B11001800FFF782FF9A
:103A600003001800FEF73AFA010018203B187A68A4
:103A70001A603B180C22BA185A607C683B181A6806
:103A80005B68280000F00FFF0300E3637B683C33B2
:103A90001800FEF7D5F904007B682C337A6B11000F
:103AA0001800FFF75FFF03001800FEF706FA030097
:103AB0003B622023FB181800FEF7C2F90300E31A4B
:103AC0005A425341DBB2002B07D07B6820337A6B1C
:103AD0001100180000F002FF2DE07B683C331C0051
:103AE0007B682C337A6B11001800FFF73BFF030053
:103AF0001800FEF7F3F903007B622423FB1819007A
:103B00002000FEF7BBF9031E0ED07B6820337A6BD2
:103B10001100180000F0E2FE0823FB181800FFF760
:103B200039FF031E07D00AE07A6824217B6BD31883
:103B30005B1801221A707B6B01337B636FE77B6834
:103B40003C331800FEF77CF904007B682C331D0021
:103B50007B682033180000F0CFFE03001900280016
:103B6000FFF700FF03001800FEF7B8F90300BB627F
:103B70002823FB181800FEF763F90300E31A5A42E2
:103B80005341DBB2002B25D07B6824331C007B68BB
:103B90002033180000F0B0FE0300E31801221A7071
:103BA0007B6820330021180000F098FE7B682C33DE
:103BB0001C007B682033180000F09EFE03001900F3
:103BC0002000FFF7CFFE03007C681800FEF775F9B0
:103BD0000300E3632F257C190823FB181800FFF767
:103BE000D9FE030023707B191B78002B0CD07B6857
:103BF00058697B68183308221900FCF7FBFA7B68C8
:103C00004222002199540FE07B6824331C007B681A
:103C10002033180000F070FE0300E31801221A7030
:103C20007B6842220521995400233B637B682C3337
:103C3000180000F02FFE02003B6B93429B415B4259
:103C4000DBB2002B42D07A6824213B6BD3185B187F
:103C50001B7801225340DBB2002B0AD07B68203353
:103C6000180000F049FE02003B6B934201D0012393
:103C700000E00023002B25D07B682C333A6B110029
:103C80001800FFF76FFE03001800FEF716F9040096
:103C90007B682C333A6B11001800FFF763FE0300BA
:103CA0001800FEF71BF9030042461900200000F03F
:103CB0002DFE030018007A6824213B6BD3185B1893
:103CC000021C1A703B6B01333B63AFE77B68243304
:103CD000180000F031FE04007B682433180000F067
:103CE00034FE0300321C1900200000F038FE031ED1
:103CF00003D07B684122032199547B681B6918001B
:103D0000FCF706FF2F23FB181B781800BD460EB0EA
:103D100004BC9046F0BD80B582B000AF78607B688F
:103D20001800BD4602B080BD80B582B000AF78609B
:103D30007B681800BD4602B080BD80B582B000AF80
:103D400078607B689133FF331800BD4602B080BDB8
:103D5000B0B584B000AFF860B9607A603A00137013
:103D6000281C00F012FE7A68B968F868231C00F07D
:103D700034FE03001800BD4604B0B0BD90B583B05A
:103D800000AF78607B681800FFF75AFC04007A687F
:103D900090235B00D3581800FDF7BEF903001A000A
:103DA000FF239B1A9C429B415B42DBB21800BD463D
:103DB00003B090BD80B582B000AF78607B6818001A
:103DC000FEF750F97A6880235B00D358190000F0A1
:103DD0003EFE03001800BD4602B080BD80B582B033
:103DE00000AF78607B681800FEF73CF9030018000C
:103DF000FEF741FF01007A6882235B00D358CB189D
:103E00001800BD4602B080BD90B587B000AFF86025
:103E1000B9607A601623FB18FF221A701523FB186D
:103E2000FF221A70BB685A1CBA60197815243B1916
:103E30001A7817203B184A401A7001007B181B782B
:103E40000F4AD25C16203B181B785340DAB23B195C
:103E50001A707B181B780B4AD25C3B181A70BA6830
:103E60007B689A4200D0DDE71623FA181523F9186B
:103E7000FB68180000F025FEF868BD4607B090BD4D
:103E80004C6A00084C6B000880B582B000AF7860C7
:103E90007B68180000F012F80300180000F005F825
:103EA00003001800BD4602B080BD80B582B000AFEF
:103EB00078607B681800BD4602B080BD80B582B0D6
:103EC00000AF78607B68180000F005F80300180068
:103ED000BD4602B080BD80B582B000AF78607B681F
:103EE000180000F005F803001800BD4602B080BDC0
:103EF00080B582B000AF78607B680133180000F0B5
:103F000005F803001800BD4602B080BD80B582B040
:103F100000AF78607B681800BD4602B080BD80B5F8
:103F200082B000AF78607B68180000F009F80300E9
:103F30001800FFF7BAFF03001800BD4602B080BDAD
:103F400080B582B000AF78607B68180000F005F89B
:103F500003001800BD4602B080BD80B582B000AF3E
:103F600078607B68180000F005F803001800BD4673
:103F700002B080BD80B582B000AF78607B68180069
:103F800000F005F803001800BD4602B080BD80B502
:103F900082B000AF78607B681800BD4602B080BD7B
:103FA000F0B587B000AF78607B681B691726BC1935
:103FB000180000F05CFD030023707B681B6916226B
:103FC000BC18180000F053FD030023707B681B69C8
:103FD0001800FEF750F804007B681B691800FFF713
:103FE000FDFE020008257B1921001800FFF70CFFD9
:103FF0002C003B191800FFF747FF03003B613B19FA
:104000001800FFF78CFF0300FB60FB681B78BA19F0
:1040100012789A4208D13B691B781622BA18127896
:104020009A4201D1012300E000231800BD4607B0E9
:10403000F0BD90B583B000AF78607A6882235B00F2
:10404000D258796880235B00CB589A4214D97B6898
:104050001800FEF707F804007A6880235B00D35845
:10406000581C79688022520088501900200000F006
:10407000EEFC03001B7800E000231800BD4603B0EF
:1040800090BDB0B586B000AF78607B6802211800A3
:1040900000F032FD03001A0001235340DBB2002B75
:1040A00005D07B680221180000F0CAF969E07B683E
:1040B0001B691800FFF784FA7B681B6918007B688E
:1040C00024229B5C190000F04EFD03000321180020
:1040D00000F049FD7B682C229B5C190000F043FD39
:1040E0007B685B8D5A1E91B27A6851855A1E934146
:1040F000DBB2002B11D07B681B6918007B68DB8C5E
:104100005A1C91B27A68D1841A007B682C32520012
:10411000D35A190000F06CFDE2E77B681B691800B8
:10412000FDF7A9FF04007B681B691800FFF756FE26
:1041300002000C257B1921001800FFF765FE2C00FA
:104140003B191800FFF7A0FE03007B613B19180024
:10415000FFF7E5FE03003B617B681B691A007B6982
:104160001B781900100000F0FEFC02003B691B7870
:104170001900100000F0F7FC7B681B69180000F0C4
:1041800065FDBD4606B0B0BD80B582B000AF7860B9
:1041900039603B68032B30D03B68032B41DC3B6824
:1041A000022B1ED03B68022B3BDC3B68002B03D06C
:1041B0003B68012B0AD034E07B681B685A687B6837
:1041C0001B681B6A5021525A5A802AE07B681B6880
:1041D0005B6852229A5A7B681B681B6AD2B21A71BA
:1041E0001FE07B681B685B6854229B5AD03B5A4295
:1041F0005341DAB20D4B1A7013E00C4B1B78002BB5
:104200000BD00A4B00221A707B681B685A687B68C7
:104210001B681B6A5621525A1A80044B01221A70DD
:10422000C046C046BD4602B080BDC046F005002075
:10423000B0B586B000AF786039607B6804211800A3
:1042400000F05AFC03001A0001235340DBB2002B9C
:1042500005D07B680221180000F0F2F88CE07B6842
:104260001B691A007B682C331900100000F02BFD2D
:104270007B68180000F055FD03001A00012353402D
:10428000DBB2002B05D07B680321180000F0D8F8C2
:1042900072E01623FB1800221A807B685B8D1621C2
:1042A0007A1812889A4211D27B68DB8C1A000C00B3
:1042B0007B181B88D2183B0011001800FFF764FF21
:1042C0003B191A883B1901321A80E6E77B681B69A3
:1042D0001800FFF775F97B681B6918007B682422BA
:1042E0009B5C190000F03FFC7B6825229B5C190059
:1042F00000F039FC02007B68DB8C1900100000F034
:1043000077FC02007B685B8D1900100000F070FCE8
:104310007B681B691800FDF7AEFE04007B681B6913
:104320001800FFF75BFD020008257B19210018002B
:10433000FFF76AFD2C003B191800FFF7A5FD0300ED
:104340003B613B191800FFF7EAFD0300FB607B6847
:104350001B691A003B691B781900100000F003FC70
:104360000200FB681B781900100000F0FCFB7B6862
:104370001B69180000F06AFCBD4606B0B0BD000025
:1043800090B585B000AF78607B680021180000F020
:1043900099FD03001A0001235340DBB2002B05D026
:1043A0007B680221180000F04BF843E07B681B6932
:1043B0001A000A243B191900100000F0BAFD22006F
:1043C000BB181B88002B0BD0BB181A88FF231B02BD
:1043D0009A4205D07B680321180000F031F829E0EB
:1043E0007B686C331A007B68DB8C1900100000F0CE
:1043F000D5FD0300FB60FB68180000F0DFFD031E25
:104400000DD00A23FB181B880C4A944663445A4279
:104410005341DAB2FB681100180000F0E0FD7B6840
:104420001B690821180000F0F8FD7B681B69180063
:1044300000F00CFCBD4605B090BDC0460001FFFF7A
:10444000B0B586B000AF78600A00FB1C1A707B68BC
:104450001B691800FFF7B4F8FB1C1B78012B1ED159
:104460007B681B6918007B6824229B5C190000F0A4
:104470007AFB04007B6825229A5C7B681100180097
:1044800000F0E8FD03001900200000F06CFB0200C2
:10449000FB1C1B781900100000F065FB44E0FB1CBE
:1044A0001B78022B1ED17B681B6918007B682422B5
:1044B0009B5C190000F057FB04007B6825229A5C86
:1044C0007B681100180000F0C5FD030019002000F2
:1044D00000F049FB0200FB1C1B781900100000F0E3
:1044E00042FB21E0FB1C1B78032B1DD17B681B6961
:1044F00018007B6824229B5C190000F034FB040048
:104500007B6825229A5C7B681100180000F0A2FDF0
:1045100003001900200000F026FB0200FB1C1B78A2
:104520001900100000F01FFB7B681B691800FDF7E5
:10453000A2FD04007B681B691800FFF74FFC020016
:104540000C257B1921001800FFF75EFC2C003B199D
:104550001800FFF799FC03007B613B191800FFF777
:10456000DEFC03003B617B681B691A007B691B78DA
:104570001900100000F0F7FA02003B691B781900DF
:10458000100000F0F0FA7B681B69180000F05EFB79
:10459000C046BD4606B0B0BD80B584B000AFF8607F
:1045A000B9607A60FB68180000F065FD0100FA68E8
:1045B00080235B00D2587B68D31ACB18BA68D31A11
:1045C0005A1E9341DBB2002B05D0FA6882235B00B0
:1045D0000121D15409E0FA6880235B00D2587B683E
:1045E000D11AFA6880235B00D150BD4604B080BD6B
:1045F00080B582B000AF78600A00FB1C1A70FB1C0B
:104600001B7803221340DAB27B6803210A40196841
:10461000032081430A431A607B681800BD4602B03C
:1046200080BD80B582B000AF78607B681800BD4661
:1046300002B080BD80B582B000AF786039603B00C9
:104640001800FFF7EEFF02007B6812681A607B68B3
:104650001800BD4602B080BD80B582B000AF786062
:10466000181CBD4602B080BD80B584B000AFF860B4
:10467000B9607A603A0013700823FA180C23FB180B
:1046800011001800FDF7FAFE031E0ED0FA683B1D5C
:104690001100180000F00FFD03001A000123534021
:1046A000DBB2002B01D0012300E00023002B05D05A
:1046B0000C23FB181800FDF7F2FEDDE7FB6818007D
:1046C000BD4604B080BD80B584B000AF786039606D
:1046D0003B681A1D7B681100180000F000FD030004
:1046E000FB60FB68002B09D0FB68BB60BB683A68C5
:1046F0001A60BB680433BB60BB6800E0002318008D
:10470000BD4604B080BD80B582B000AF78600A00BD
:10471000FB1C1A70FB1C1B7803221340DAB27B6867
:1047200003210A40920019680C2081430A431A6051
:104730007B681800BD4602B080BD80B582B000AF76
:1047400078607B681800BD4602B080BD80B582B03D
:1047500000AF786039603B001800FFF7EEFF020001
:104760007B6812681A607B681800BD4602B080BD85
:1047700080B584B000AFF860B9607A603A00137019
:104780000823FA180C23FB1811001800FDF776FE19
:10479000031E0ED0FA683B1D1100180000F0E4FC67
:1047A00003001A0001235340DBB2002B01D0012388
:1047B00000E00023002B05D00C23FB181800FDF7A8
:1047C0006EFEDDE7FB681800BD4604B080BD80B515
:1047D00082B000AF786039603B68DB007A68D3183C
:1047E0001800BD4602B080BD80B582B000AF7860D1
:1047F0007B681800BD4602B080BD80B582B000AFB6
:1048000078607B6808331800BD4602B080BD90B563
:1048100085B000AFF860B9607A60FB68180000F0FE
:10482000B7FC0400BB68180000F0B2FC01007B6814
:104830001A00200000F0B5FCC046BD4605B090BD92
:1048400080B582B000AF78607B681800BD4602B0CA
:1048500080BD80B582B000AF78607B6808331800F7
:10486000BD4602B080BD90B585B000AFF860B960BC
:104870003B1D1A70B968FB68221C180000F0AAFCE6
:104880000200BB689B1A5A425341DBB21800BD4676
:1048900005B090BD80B582B000AF786002231800EB
:1048A000BD4602B080BD90B587B000AFF860B9607A
:1048B00039000A604B60102438193B0019685A68A7
:1048C00000F09DFC3B19B968F8681A685B6800F055
:1048D000ABFC03001800BD4607B090BD80B582B0A8
:1048E00000AF786039607B683A681A607B681B6843
:1048F0001800BD4602B080BD80B582B000AF7860C0
:104900007B681B681800BD4602B080BD90B585B0BD
:1049100000AFF860B9603B1D1A70B968FB68221CD3
:10492000180000F09CFC03001A0001235340DBB286
:104930001800BD4605B090BD80B582B000AF78606C
:104940007B681800BD4602B080BD80B582B000AF64
:1049500078607B6802331800BD4602B080BD90B518
:1049600085B000AFF860B9603B1D1A70B968FB688C
:10497000221C180000F096FC03001A00012353408B
:10498000DBB21800BD4605B090BDB0B584B000AF35
:104990003B1D18703B1D180000F09BFC0C23FB18FE
:1049A000291C180000F09EFC201CBD4604B0B0BDC0
:1049B000B0B582B000AF786039607C683B1D1800EC
:1049C00000F09FFC3B682A1C1900200000F0A1FCAD
:1049D00003001800BD4602B0B0BD80B588B000AF7E
:1049E000F860B9607A603A001370BA68FB68110029
:1049F0001800FFF7DDFF0300FB61FB69002B21DDE1
:104A0000FB695B10BB61FB687B61BA691423FB180F
:104A10001100180000F08CFC79697A683B001800DE
:104A200000F09BFC031E0AD07B69FB60FB6804332B
:104A3000FB60FA69BB69D31A013BFB61DDE7BB6927
:104A4000FB61DAE7FB681800BD4608B080BD80B5A1
:104A500082B000AF786039607B683A681100180056
:104A600000F090FC03001800BD4602B080BD80B588
:104A700082B000AF78607A6882235B00D258796890
:104A800080235B00CB589A4216D97B681800FDF74B
:104A9000E9FA7A6882235B00D358591E7A68822328
:104AA0005B00D1507A6882235B00D3581900FFF76E
:104AB000CEFF03001B7800E000231800BD4602B0C3
:104AC00080BDB0B584B000AFF860B9607A60FC68B2
:104AD000BB68180000F062FC05007B68180000F05D
:104AE0005DFC03001A002900200000F060FCFB6858
:104AF0001800BD4604B0B0BD80B582B000AF78608C
:104B00000A00BB1C1A807B681B691A007B6826336D
:104B10001900100000F00DFA7B681B691A007B6811
:104B20002A331900100000F004FA7B68DA8C7B68E5
:104B30005B8DD3189BB2013B9AB27B681A857B6868
:104B40005B8DDBB2DB18D9B27B682C2299547B6871
:104B50001A8DBB1C1B889A429B415B42DBB218003A
:104B6000BD4602B080BD90B583B000AF78600A004A
:104B7000FB1C1A707A6882235B00D358FE2B11D875
:104B8000FB1C1C787B681800FFF728F90300221C27
:104B90001A707A6882235B00D358591C7A68822382
:104BA0005B00D1507B681800BD4603B090BDB0B526
:104BB00086B000AFF860B960BB1D1A8014257B1960
:104BC000BA1D12881A807B190021180000F00FFC12
:104BD00004007B190121180000F009FC0200FB68A9
:104BE00021001800FFF76DFFF868BD4606B0B0BDA4
:104BF00090B587B000AF78600A00BB1C1A800C2407
:104C00003819BB1C1A887B681900FFF7D0FF3B19C5
:104C10001800FFF739F903007B613B191800FFF713
:104C20007EF903003B613B691A787B68110018002C
:104C3000FFF799FF02007B691B7819001000FFF74E
:104C400092FF7B681800BD4607B090BD90B583B059
:104C500000AF78607A6888235B00D3580121180080
:104C6000FCF76BF87A688C235B00D358002118009E
:104C7000FCF7DDFB7A6890235B00D3581800FCF743
:104C800097F97A688E235B00D3581800FCF790F9E7
:104C90007A688E235B00D4587B681800FEF7D0FC3E
:104CA00003009BB202339BB219002000FCF7C4F949
:104CB0007A688E235B00D3581800FCF760F9C04671
:104CC000BD4603B090BD90B583B000AF7860396049
:104CD0007A6882235B00D258796880235B00CB58C6
:104CE0009A4216D97B681800FDF7BCF904007A686F
:104CF00080235B00D358581C79688022520088506A
:104D000019002000FFF7A3FE03001A783B681A7011
:104D100002E03B6800221A707B681800BD4603B0B1
:104D200090BD90B585B000AF78600E23FB180022CF
:104D30001A807B685B8D0E243A1912889A4200D340
:104D4000BBE07B681B691A007B682E3319001000DA
:104D500000F0EFF87B68DB8C1A0020003B181B8802
:104D6000D3187A686D21D3185B181B78002B50D0AC
:104D70007B68DB8D1AB27B68DB8C19003B181B88C3
:104D8000CB1879682C335B00CB1804331B881BB21B
:104D90009A420DDA7B68DB8C1A003B181B88D3180B
:104DA0007A682C335B00D31804331B88002B20D186
:104DB0007B68DB8D1AB27B68DB8C19000E203B18F8
:104DC0001B88CB18796830335B00CB1804331B8801
:104DD0001BB29A420FDD7B68DB8C1A003B181B88E4
:104DE000D3187A6830335B00D31804331B88002B48
:104DF00001D0002362E07B68DB8C1A000E23FB18D5
:104E00001B88D2187B68D98D7B6828325200D1521A
:104E10004CE07B68DA8D7B68DB8C19000E203B1838
:104E20001B88CB1879682C335B00CB1804331B88A4
:104E30009A420DD27B68DB8C1A003B181B88D31872
:104E40007A682C335B00D31804331B88002B1ED1E7
:104E50007B68DA8D7B68DB8C19000E203B181B8881
:104E6000CB18796830335B00CB1804331B889A4227
:104E70000FD97B68DB8C1A003B181B88D3187A6823
:104E800030335B00D31804331B88002B01D0002380
:104E900014E07B68DB8C1A000E23FB181B88D218E9
:104EA0007B68D98D7B6828325200D1520E217B1845
:104EB0001A887B1801321A803BE701231800BD468F
:104EC00005B090BD80B582B000AF78600A00BB1C11
:104ED0001A807B681B691A007B6826331900100052
:104EE00000F027F87B68DA8CBB1C1B889A429B4138
:104EF0005B42DBB21800BD4602B080BD80B584B015
:104F000000AF786008001100FB1C021C1A70BB1C6B
:104F10000A1C1A700C217B18BA1C12781A707B18A4
:104F2000FA1C12785A707B181B881800BD4604B012
:104F300080BDF0B585B000AF786039607A688223B3
:104F40005B00D258796880235B00CB5801339A42CA
:104F50001CD90F257C197B681800FFF76AF803003D
:104F600023700E26BC197B681800FFF762F8030057
:104F70002370BB191A787B1919787B681800FFF722
:104F8000BDFF03001A003B681A8002E03B68002264
:104F90001A807B681800BD4605B0F0BD80B582B0B0
:104FA00000AF786039607B683A681100180000F043
:104FB0002EFA03001800BD4602B080BD80B582B055
:104FC00000AF78607B681800FCF7D0F803001A0087
:104FD00001235340DBB21800BD4602B080BDB0B51E
:104FE00082B000AF78600A00FB1C1A707B68180062
:104FF000FCF7BCF8031E01D001F0FBFC7B68DC6809
:105000007D68FB1C1800FDF791FF030019002800C4
:10501000A047C046BD4602B0B0BD80B584B000AF69
:10502000786039607A6880235B000021D150FF23CB
:10503000FB600C23FA183B0011001800FCF7A3F8E2
:10504000030019687A6882235B00D150C046BD46D0
:1050500004B080BD80B582B000AF78600A00FB1C50
:105060001A70FB1C1B78802252421343DBB21800DB
:10507000BD4602B080BD80B582B000AF78607B686D
:10508000180000F0CEF903001800BD4602B080BD44
:1050900080B582B000AF786039603B681A697B6880
:1050A0001B6801219A4201DC0023191CCBB21800B5
:1050B000BD4602B080BD90B583B000AF7860396066
:1050C0007C683B001800FDF7F8F903001900200088
:1050D000FFF7DEFF03001800BD4603B090BD80B5AA
:1050E00084B000AF786039607B681800FFF7C3FFB9
:1050F00001007A6880235B00D358CB18FB607A6884
:1051000080235B00D2583B68D1187A6880235B000B
:10511000D1507A6880235B00D25880235B009A428A
:105120000AD87A6882235B00D35C01225340DBB249
:10513000002B01D0FB6800E000231800BD4604B03E
:1051400080BD80B582B000AF786039603B681A6975
:105150007B681B6801219A4201DC0023191CCBB239
:105160001800BD4602B080BD90B583B000AF786036
:1051700039607C683B001800FDF79FF903001900B7
:105180002000FFF7DEFF03001800BD4603B090BD0E
:1051900080B582B000AF78607B681800BD4602B071
:1051A00080BD80B586B000AFF860B9607A607B687A
:1051B0001B687B61FA68BB689A4207D07B69DAB2E8
:1051C000FB681A70FB680133FB60F3E7C046BD461D
:1051D00006B080BDB0B584B000AFF860B9603B1DCB
:1051E0001A70281C00F02AF9B968FB68221C180004
:1051F00000F037F903001800BD4604B0B0BD80B51B
:1052000084B000AFF8603B1D19605A603B1D180068
:1052100000F044F90300F86819685A6800F047F98B
:10522000F868BD4604B080BD90B587B002AFF860A5
:10523000B96039000A604B600C23FB18180000F0BD
:105240004AF93B00B968F8686A4614701A685B68E6
:1052500000F049F903001800BD4605B090BDB0B597
:1052600086B000AFF860B9603B1D1A700823FB18C8
:105270001800FCF7E5FD0400B968FB682A1C18005B
:1052800000F060F903007B611423FB181800FCF7A1
:10529000D7FD0300E31A5A425341DBB21800BD4662
:1052A00006B0B0BD90B585B000AFF860B9603B1DE9
:1052B0001A70B968FB68221C180000F058F9020047
:1052C000BB689B1A5A425341DBB21800BD4605B079
:1052D00090BD80B582B000AF78607B681800BD4695
:1052E00002B080BD80B582B000AF78603B0019701D
:1052F0003B001800FFF7EDFF7B681800BD4602B0C9
:1053000080BD80B582B000AF7860181CBD4602B089
:1053100080BD80B584B000AFF860B9603B1D1A70E5
:10532000BA68FB68D31A9B101800BD4604B080BD54
:1053300090B585B000AF786039603B68FB607B68F2
:105340001800FFF7DEFFF9687B68221C180000F0E8
:1053500023F9C046BD4605B090BD80B586B000AF0C
:10536000F860B9607A60F8687B681B887B611423F9
:10537000FA18BB68190000F021F903001800BD46B7
:1053800006B080BD80B582B000AF786039607A68C1
:105390003B68D3181800BD4602B080BD80B582B00E
:1053A00000AF78607B681800BD4602B080BD90B544
:1053B00085B000AFF860B9607A60FC687B6818005F
:1053C000FFF7ECFF03001900200000F009F9FB686B
:1053D0005C1CBB681800FFF7E1FF03001900200008
:1053E00000F012F9FB681800BD4605B090BD80B50D
:1053F00082B000AF786039607B683A6811001800AD
:1054000000F014F903001800BD4602B080BD80B55D
:1054100082B000AF7860396000231800BD4602B04A
:1054200080BD80B582B000AF78607B68180000F066
:1054300009F903001800BD4602B080BDB0B584B0C4
:1054400000AF3B1D18703B1D180000F004F90C2341
:10545000FB18291C180000F007F9201CBD4604B0F9
:10546000B0BDF0B585B000AFF860B9603B1D1A70F3
:10547000FC683B1D1B78181C00F005F90C23FB1879
:10548000180000F013F9B968331C2A1C200000F042
:1054900015F903001800BD4605B0F0BD80B582B017
:1054A00000AF78607B681800BD4602B080BD80B553
:1054B00084B000AFF8603B1D19605A603B1D1800B6
:1054C000FFF7ECFF0200FB6803CA03C3FB68180088
:1054D000BD4604B080BD80B582B000AF7860181CB6
:1054E000BD4602B080BD80B584B000AFF860B96041
:1054F00039000A604B600823FA180C23FB181100CE
:105500001800FCF7BBFC031E0ED0FA683B0011002C
:10551000180000F07DF903001A0001235340DBB2AC
:10552000002B01D0012300E00023002B05D00C2329
:10553000FB181800FCF7B3FCDDE7FB681800BD465C
:1055400004B080BDB0B584B000AFF860B9603B1D59
:105550001A70281C00F070F9B968FB68221C18004A
:1055600000F07DF903001800BD4604B0B0BDB0B531
:1055700084B000AFF860B9603B1D1A70281C00F0C1
:1055800086F9B968FB68221C180000F093F9030043
:105590001800BD4604B0B0BD80B584B000AFF8605F
:1055A000B9603B1D1A70FB681A68BB689B00D21873
:1055B000FB681A60C046BD4604B080BD80B584B0AB
:1055C00000AFF860B9607A60BB681A687B681B68D6
:1055D00093429B415B42DBB21800BD4604B080BDE4
:1055E00090B583B000AF786039607C683B68180084
:1055F000FFF7D4FE03001900200000F074F97B6867
:105600001800BD4603B090BD80B582B000AF786091
:1056100039603B681800FFF7C1FE03001A787B6809
:105620001A707B681800BD4602B080BD80B582B09C
:1056300000AF786039607A683B68D3181800BD46BF
:1056400002B080BD80B582B000AF78607B68180082
:10565000BD4602B080BD80B582B000AF78607B6887
:105660001800BD4602B080BD80B582B000AF786042
:105670003B0019703B001800FFF7EDFF7B68180036
:10568000BD4602B080BDB0B584B000AF3B1D187000
:105690003B1D1800FFF7DFFF0C23FB18291C180027
:1056A00000F033F9201CBD4604B0B0BD80B582B017
:1056B00000AF7860181CBD4602B080BD80B586B0D2
:1056C00000AFF860B960391D0A703A001370BA680B
:1056D000FB68D31A9B107B617B69002B37DDFA686E
:1056E0003B1D1100180000F02AF9031E01D0FB68D1
:1056F00060E0FB680133FB60FA683B1D1100180095
:1057000000F01DF9031E01D0FB6853E0FB68013374
:10571000FB60FA683B1D1100180000F010F9031E31
:1057200001D0FB6846E0FB680133FB60FA683B1D73
:105730001100180000F003F9031E01D0FB6839E0E6
:10574000FB680133FB607B69013B7B61C4E7BA689E
:10575000FB68D31A032B05D02BDC012B1CD0022BAA
:105760000DD026E0FA683B1D1100180000F0E7F8A4
:10577000031E01D0FB681DE0FB680133FB60FA6883
:105780003B1D1100180000F0DAF8031E01D0FB6881
:1057900010E0FB680133FB60FA683B1D1100180044
:1057A00000F0CDF8031E01D0FB6803E0FB68013375
:1057B000FB60BB681800BD4606B080BD80B584B0F4
:1057C00000AF786039603B68FB60FB681B78072B93
:1057D00010D87B681B68FA6812781100FA68527852
:1057E0005B181A767B685B68FA6812780121995415
:1057F000002307E03B681B88044A944663445A42EE
:105800005341DBB21800BD4604B080BD0100FFFF6C
:1058100090B583B000AF786039607C683B001800B9
:10582000FCF718FB030019002000FFF7C7FF030077
:105830001800BD4603B090BDB0B584B000AF3B1DAD
:1058400018703B1D180000F08EF80C23FB18291C63
:10585000180000F091F8201CBD4604B0B0BD90B512
:1058600085B000AFF860B9603B1D1A700C23FB18BF
:105870001800FFF730FE3B1D1A78B968F868231C42
:1058800000F089F803001800BD4605B090BDB0B522
:1058900084B000AF3B1D18703B1D180000F0ABF842
:1058A0000C23FB18291C180000F0AEF8201CBD4684
:1058B00004B0B0BDB0B584B000AFF860B9603B1DB6
:1058C0001A70FC680C23FB181800FFF7EFFE3B1D55
:1058D0001A78B9682B1C200000F0A5F80300180006
:1058E000BD4604B0B0BD80B582B000AF786039600D
:1058F0003B681800FFF752FD03001A787B681A70A6
:105900007B681800BD4602B080BD80B582B000AF94
:1059100078603B0019703B001800FFF79CFE7B6825
:105920001800BD4602B080BD80B582B000AF78607F
:1059300039603B681B781800BD4602B080BD80B559
:1059400082B000AF786039607B683A681100180057
:10595000FFF7EAFF03001A0001235340DBB21800EF
:10596000BD4602B080BD80B582B000AF78607B6874
:105970001800BD4602B080BD80B582B000AF78602F
:105980003B0019703B001800FFF7EDFF7B68180023
:10599000BD4602B080BD80B584B000AFF860B9608C
:1059A000391D0A703A0013700823FA180C23FB18EB
:1059B00011001800FCF762FA031E0ED0FA683B1DB6
:1059C0001100180000F0C4F803001A00012353402E
:1059D000DBB2002B01D0012300E00023002B05D017
:1059E0000C23FB181800FCF75AFADDE7FB681800D7
:1059F000BD4604B080BD80B582B000AF78607B68E2
:105A00001800BD4602B080BD80B582B000AF78609E
:105A10003B0019703B001800FFF7EDFF7B68180092
:105A2000BD4602B080BD80B586B000AFF860B960F9
:105A3000391D0A703A001370BA68FB68D31A9B10BC
:105A40007B617B69002B37DDFA683B1D1100180074
:105A500000F09DF8031E01D0FB6860E0FB68013395
:105A6000FB60FA683B1D1100180000F090F8031E5F
:105A700001D0FB6853E0FB680133FB60FA683B1D13
:105A80001100180000F083F8031E01D0FB6846E007
:105A9000FB680133FB60FA683B1D1100180000F041
:105AA00076F8031E01D0FB6839E0FB680133FB6028
:105AB0007B69013B7B61C4E7BA68FB68D31A032B9F
:105AC00005D02BDC012B1CD0022B0DD026E0FA6870
:105AD0003B1D1100180000F05AF8031E01D0FB68AE
